{
  "contractName": "PotionShop",
  "abi": [
    {
      "inputs": [
        {
          "internalType": "string",
          "name": "newBaseURI",
          "type": "string"
        }
      ],
      "stateMutability": "nonpayable",
      "type": "constructor"
    },
    {
      "anonymous": false,
      "inputs": [
        {
          "indexed": true,
          "internalType": "address",
          "name": "owner",
          "type": "address"
        },
        {
          "indexed": true,
          "internalType": "address",
          "name": "approved",
          "type": "address"
        },
        {
          "indexed": true,
          "internalType": "uint256",
          "name": "tokenId",
          "type": "uint256"
        }
      ],
      "name": "Approval",
      "type": "event"
    },
    {
      "anonymous": false,
      "inputs": [
        {
          "indexed": true,
          "internalType": "address",
          "name": "owner",
          "type": "address"
        },
        {
          "indexed": true,
          "internalType": "address",
          "name": "operator",
          "type": "address"
        },
        {
          "indexed": false,
          "internalType": "bool",
          "name": "approved",
          "type": "bool"
        }
      ],
      "name": "ApprovalForAll",
      "type": "event"
    },
    {
      "anonymous": false,
      "inputs": [
        {
          "indexed": true,
          "internalType": "address",
          "name": "previousOwner",
          "type": "address"
        },
        {
          "indexed": true,
          "internalType": "address",
          "name": "newOwner",
          "type": "address"
        }
      ],
      "name": "OwnershipTransferred",
      "type": "event"
    },
    {
      "anonymous": false,
      "inputs": [
        {
          "indexed": true,
          "internalType": "address",
          "name": "from",
          "type": "address"
        },
        {
          "indexed": true,
          "internalType": "address",
          "name": "to",
          "type": "address"
        },
        {
          "indexed": true,
          "internalType": "uint256",
          "name": "tokenId",
          "type": "uint256"
        }
      ],
      "name": "Transfer",
      "type": "event"
    },
    {
      "inputs": [],
      "name": "a1",
      "outputs": [
        {
          "internalType": "address",
          "name": "",
          "type": "address"
        }
      ],
      "stateMutability": "view",
      "type": "function"
    },
    {
      "inputs": [
        {
          "internalType": "address",
          "name": "to",
          "type": "address"
        },
        {
          "internalType": "uint256",
          "name": "tokenId",
          "type": "uint256"
        }
      ],
      "name": "approve",
      "outputs": [],
      "stateMutability": "nonpayable",
      "type": "function"
    },
    {
      "inputs": [
        {
          "internalType": "address",
          "name": "owner",
          "type": "address"
        }
      ],
      "name": "balanceOf",
      "outputs": [
        {
          "internalType": "uint256",
          "name": "",
          "type": "uint256"
        }
      ],
      "stateMutability": "view",
      "type": "function"
    },
    {
      "inputs": [],
      "name": "baseExtension",
      "outputs": [
        {
          "internalType": "string",
          "name": "",
          "type": "string"
        }
      ],
      "stateMutability": "view",
      "type": "function"
    },
    {
      "inputs": [],
      "name": "baseTokenURI",
      "outputs": [
        {
          "internalType": "string",
          "name": "",
          "type": "string"
        }
      ],
      "stateMutability": "view",
      "type": "function"
    },
    {
      "inputs": [
        {
          "internalType": "uint256",
          "name": "tokenId",
          "type": "uint256"
        }
      ],
      "name": "getApproved",
      "outputs": [
        {
          "internalType": "address",
          "name": "",
          "type": "address"
        }
      ],
      "stateMutability": "view",
      "type": "function"
    },
    {
      "inputs": [
        {
          "internalType": "address",
          "name": "owner",
          "type": "address"
        },
        {
          "internalType": "address",
          "name": "operator",
          "type": "address"
        }
      ],
      "name": "isApprovedForAll",
      "outputs": [
        {
          "internalType": "bool",
          "name": "",
          "type": "bool"
        }
      ],
      "stateMutability": "view",
      "type": "function"
    },
    {
      "inputs": [],
      "name": "name",
      "outputs": [
        {
          "internalType": "string",
          "name": "",
          "type": "string"
        }
      ],
      "stateMutability": "view",
      "type": "function"
    },
    {
      "inputs": [],
      "name": "owner",
      "outputs": [
        {
          "internalType": "address",
          "name": "",
          "type": "address"
        }
      ],
      "stateMutability": "view",
      "type": "function"
    },
    {
      "inputs": [
        {
          "internalType": "uint256",
          "name": "tokenId",
          "type": "uint256"
        }
      ],
      "name": "ownerOf",
      "outputs": [
        {
          "internalType": "address",
          "name": "",
          "type": "address"
        }
      ],
      "stateMutability": "view",
      "type": "function"
    },
    {
      "inputs": [],
      "name": "presaleActive",
      "outputs": [
        {
          "internalType": "bool",
          "name": "",
          "type": "bool"
        }
      ],
      "stateMutability": "view",
      "type": "function"
    },
    {
      "inputs": [
        {
          "internalType": "address",
          "name": "",
          "type": "address"
        }
      ],
      "name": "presaleReserved",
      "outputs": [
        {
          "internalType": "uint256",
          "name": "",
          "type": "uint256"
        }
      ],
      "stateMutability": "view",
      "type": "function"
    },
    {
      "inputs": [],
      "name": "price",
      "outputs": [
        {
          "internalType": "uint256",
          "name": "",
          "type": "uint256"
        }
      ],
      "stateMutability": "view",
      "type": "function"
    },
    {
      "inputs": [],
      "name": "renounceOwnership",
      "outputs": [],
      "stateMutability": "nonpayable",
      "type": "function"
    },
    {
      "inputs": [
        {
          "internalType": "address",
          "name": "from",
          "type": "address"
        },
        {
          "internalType": "address",
          "name": "to",
          "type": "address"
        },
        {
          "internalType": "uint256",
          "name": "tokenId",
          "type": "uint256"
        }
      ],
      "name": "safeTransferFrom",
      "outputs": [],
      "stateMutability": "nonpayable",
      "type": "function"
    },
    {
      "inputs": [
        {
          "internalType": "address",
          "name": "from",
          "type": "address"
        },
        {
          "internalType": "address",
          "name": "to",
          "type": "address"
        },
        {
          "internalType": "uint256",
          "name": "tokenId",
          "type": "uint256"
        },
        {
          "internalType": "bytes",
          "name": "_data",
          "type": "bytes"
        }
      ],
      "name": "safeTransferFrom",
      "outputs": [],
      "stateMutability": "nonpayable",
      "type": "function"
    },
    {
      "inputs": [],
      "name": "saleActive",
      "outputs": [
        {
          "internalType": "bool",
          "name": "",
          "type": "bool"
        }
      ],
      "stateMutability": "view",
      "type": "function"
    },
    {
      "inputs": [
        {
          "internalType": "address",
          "name": "operator",
          "type": "address"
        },
        {
          "internalType": "bool",
          "name": "approved",
          "type": "bool"
        }
      ],
      "name": "setApprovalForAll",
      "outputs": [],
      "stateMutability": "nonpayable",
      "type": "function"
    },
    {
      "inputs": [
        {
          "internalType": "bytes4",
          "name": "interfaceId",
          "type": "bytes4"
        }
      ],
      "name": "supportsInterface",
      "outputs": [
        {
          "internalType": "bool",
          "name": "",
          "type": "bool"
        }
      ],
      "stateMutability": "view",
      "type": "function"
    },
    {
      "inputs": [],
      "name": "symbol",
      "outputs": [
        {
          "internalType": "string",
          "name": "",
          "type": "string"
        }
      ],
      "stateMutability": "view",
      "type": "function"
    },
    {
      "inputs": [
        {
          "internalType": "uint256",
          "name": "index",
          "type": "uint256"
        }
      ],
      "name": "tokenByIndex",
      "outputs": [
        {
          "internalType": "uint256",
          "name": "",
          "type": "uint256"
        }
      ],
      "stateMutability": "view",
      "type": "function"
    },
    {
      "inputs": [
        {
          "internalType": "address",
          "name": "owner",
          "type": "address"
        },
        {
          "internalType": "uint256",
          "name": "index",
          "type": "uint256"
        }
      ],
      "name": "tokenOfOwnerByIndex",
      "outputs": [
        {
          "internalType": "uint256",
          "name": "",
          "type": "uint256"
        }
      ],
      "stateMutability": "view",
      "type": "function"
    },
    {
      "inputs": [],
      "name": "totalSupply",
      "outputs": [
        {
          "internalType": "uint256",
          "name": "",
          "type": "uint256"
        }
      ],
      "stateMutability": "view",
      "type": "function"
    },
    {
      "inputs": [
        {
          "internalType": "address",
          "name": "from",
          "type": "address"
        },
        {
          "internalType": "address",
          "name": "to",
          "type": "address"
        },
        {
          "internalType": "uint256",
          "name": "tokenId",
          "type": "uint256"
        }
      ],
      "name": "transferFrom",
      "outputs": [],
      "stateMutability": "nonpayable",
      "type": "function"
    },
    {
      "inputs": [
        {
          "internalType": "address",
          "name": "newOwner",
          "type": "address"
        }
      ],
      "name": "transferOwnership",
      "outputs": [],
      "stateMutability": "nonpayable",
      "type": "function"
    },
    {
      "inputs": [
        {
          "internalType": "address",
          "name": "addr",
          "type": "address"
        }
      ],
      "name": "tokensOfOwner",
      "outputs": [
        {
          "internalType": "uint256[]",
          "name": "",
          "type": "uint256[]"
        }
      ],
      "stateMutability": "view",
      "type": "function"
    },
    {
      "inputs": [
        {
          "internalType": "uint256",
          "name": "_amount",
          "type": "uint256"
        }
      ],
      "name": "mintPresale",
      "outputs": [],
      "stateMutability": "payable",
      "type": "function"
    },
    {
      "inputs": [
        {
          "internalType": "uint256",
          "name": "_amount",
          "type": "uint256"
        }
      ],
      "name": "mintToken",
      "outputs": [],
      "stateMutability": "payable",
      "type": "function"
    },
    {
      "inputs": [
        {
          "internalType": "address[]",
          "name": "_a",
          "type": "address[]"
        }
      ],
      "name": "editPresaleReserved",
      "outputs": [],
      "stateMutability": "nonpayable",
      "type": "function"
    },
    {
      "inputs": [
        {
          "internalType": "uint256",
          "name": "tokenId",
          "type": "uint256"
        }
      ],
      "name": "tokenURI",
      "outputs": [
        {
          "internalType": "string",
          "name": "",
          "type": "string"
        }
      ],
      "stateMutability": "view",
      "type": "function"
    },
    {
      "inputs": [
        {
          "internalType": "bool",
          "name": "val",
          "type": "bool"
        }
      ],
      "name": "setPresaleActive",
      "outputs": [],
      "stateMutability": "nonpayable",
      "type": "function"
    },
    {
      "inputs": [
        {
          "internalType": "bool",
          "name": "val",
          "type": "bool"
        }
      ],
      "name": "setSaleActive",
      "outputs": [],
      "stateMutability": "nonpayable",
      "type": "function"
    },
    {
      "inputs": [
        {
          "internalType": "string",
          "name": "baseURI",
          "type": "string"
        }
      ],
      "name": "setBaseURI",
      "outputs": [],
      "stateMutability": "nonpayable",
      "type": "function"
    },
    {
      "inputs": [
        {
          "internalType": "uint256",
          "name": "newPrice",
          "type": "uint256"
        }
      ],
      "name": "setPrice",
      "outputs": [],
      "stateMutability": "nonpayable",
      "type": "function"
    },
    {
      "inputs": [
        {
          "internalType": "address",
          "name": "_a",
          "type": "address"
        }
      ],
      "name": "setAddress",
      "outputs": [],
      "stateMutability": "nonpayable",
      "type": "function"
    },
    {
      "inputs": [],
      "name": "withdraw",
      "outputs": [],
      "stateMutability": "payable",
      "type": "function"
    }
  ],
  "bytecode": "0x60806040526000600a60146101000a81548160ff0219169083151502179055506000600a60156101000a81548160ff021916908315150217905550668e1bc9bf040000600b556040518060400160405280600581526020017f2e6a736f6e000000000000000000000000000000000000000000000000000000815250600d90805190602001906200009292919062000341565b50348015620000a057600080fd5b5060405162005219380380620052198339818101604052810190620000c6919062000463565b6040518060400160405280600f81526020017f54484520504f54494f4e2053484f5000000000000000000000000000000000008152506040518060400160405280600381526020017f545053000000000000000000000000000000000000000000000000000000000081525081600090805190602001906200014a92919062000341565b5080600190805190602001906200016392919062000341565b505050620001866200017a6200019e60201b60201c565b620001a660201b60201c565b62000197816200026c60201b60201c565b506200069b565b600033905090565b6000600a60009054906101000a900473ffffffffffffffffffffffffffffffffffffffff16905081600a60006101000a81548173ffffffffffffffffffffffffffffffffffffffff021916908373ffffffffffffffffffffffffffffffffffffffff1602179055508173ffffffffffffffffffffffffffffffffffffffff168173ffffffffffffffffffffffffffffffffffffffff167f8be0079c531659141344cd1fd0a4f28419497f9722a3daafe3b4186f6b6457e060405160405180910390a35050565b6200027c6200019e60201b60201c565b73ffffffffffffffffffffffffffffffffffffffff16620002a26200031760201b60201c565b73ffffffffffffffffffffffffffffffffffffffff1614620002fb576040517f08c379a0000000000000000000000000000000000000000000000000000000008152600401620002f290620004cf565b60405180910390fd5b80600c90805190602001906200031392919062000341565b5050565b6000600a60009054906101000a900473ffffffffffffffffffffffffffffffffffffffff16905090565b8280546200034f9062000597565b90600052602060002090601f016020900481019282620003735760008555620003bf565b82601f106200038e57805160ff1916838001178555620003bf565b82800160010185558215620003bf579182015b82811115620003be578251825591602001919060010190620003a1565b5b509050620003ce9190620003d2565b5090565b5b80821115620003ed576000816000905550600101620003d3565b5090565b60006200040862000402846200051a565b620004f1565b9050828152602081018484840111156200042157600080fd5b6200042e84828562000561565b509392505050565b600082601f8301126200044857600080fd5b81516200045a848260208601620003f1565b91505092915050565b6000602082840312156200047657600080fd5b600082015167ffffffffffffffff8111156200049157600080fd5b6200049f8482850162000436565b91505092915050565b6000620004b760208362000550565b9150620004c48262000672565b602082019050919050565b60006020820190508181036000830152620004ea81620004a8565b9050919050565b6000620004fd62000510565b90506200050b8282620005cd565b919050565b6000604051905090565b600067ffffffffffffffff82111562000538576200053762000632565b5b620005438262000661565b9050602081019050919050565b600082825260208201905092915050565b60005b838110156200058157808201518184015260208101905062000564565b8381111562000591576000848401525b50505050565b60006002820490506001821680620005b057607f821691505b60208210811415620005c757620005c662000603565b5b50919050565b620005d88262000661565b810181811067ffffffffffffffff82111715620005fa57620005f962000632565b5b80604052505050565b7f4e487b7100000000000000000000000000000000000000000000000000000000600052602260045260246000fd5b7f4e487b7100000000000000000000000000000000000000000000000000000000600052604160045260246000fd5b6000601f19601f8301169050919050565b7f4f776e61626c653a2063616c6c6572206973206e6f7420746865206f776e6572600082015250565b614b6e80620006ab6000396000f3fe60806040526004361061020f5760003560e01c8063715018a611610118578063b88d4fde116100a0578063d547cfb71161006f578063d547cfb714610793578063e30081a0146107be578063e985e9c5146107e7578063f2fde38b14610824578063f759867a1461084d5761020f565b8063b88d4fde146106e6578063c634d0321461070f578063c66828621461072b578063c87b56dd146107565761020f565b806391085b5d116100e757806391085b5d1461061557806391b7f5ed1461063e57806395d89b4114610667578063a035b1fe14610692578063a22cb465146106bd5761020f565b8063715018a61461056d578063841718a6146105845780638462151c146105ad5780638da5cb5b146105ea5761020f565b80633ccfd60b1161019b57806353135ca01161016a57806353135ca01461047457806355f804b31461049f5780636352211e146104c857806368428a1b1461050557806370a08231146105305761020f565b80633ccfd60b146103db5780633f8121a2146103e557806342842e0e1461040e5780634f6ccce7146104375761020f565b8063119552a1116101e2578063119552a1146102e257806318160ddd1461030d57806323b872dd146103385780632f745c591461036157806339c36fa01461039e5761020f565b806301ffc9a71461021457806306fdde0314610251578063081812fc1461027c578063095ea7b3146102b9575b600080fd5b34801561022057600080fd5b5061023b6004803603810190610236919061354f565b610869565b6040516102489190613c3c565b60405180910390f35b34801561025d57600080fd5b506102666108e3565b6040516102739190613c57565b60405180910390f35b34801561028857600080fd5b506102a3600480360381019061029e91906135e2565b610975565b6040516102b09190613bb3565b60405180910390f35b3480156102c557600080fd5b506102e060048036038101906102db91906134a9565b6109fa565b005b3480156102ee57600080fd5b506102f7610b12565b6040516103049190613bb3565b60405180910390f35b34801561031957600080fd5b50610322610b38565b60405161032f9190613f99565b60405180910390f35b34801561034457600080fd5b5061035f600480360381019061035a91906133a3565b610b45565b005b34801561036d57600080fd5b50610388600480360381019061038391906134a9565b610ba5565b6040516103959190613f99565b60405180910390f35b3480156103aa57600080fd5b506103c560048036038101906103c0919061333e565b610c4a565b6040516103d29190613f99565b60405180910390f35b6103e3610c62565b005b3480156103f157600080fd5b5061040c60048036038101906104079190613526565b610d79565b005b34801561041a57600080fd5b50610435600480360381019061043091906133a3565b610e12565b005b34801561044357600080fd5b5061045e600480360381019061045991906135e2565b610e32565b60405161046b9190613f99565b60405180910390f35b34801561048057600080fd5b50610489610ec9565b6040516104969190613c3c565b60405180910390f35b3480156104ab57600080fd5b506104c660048036038101906104c191906135a1565b610edc565b005b3480156104d457600080fd5b506104ef60048036038101906104ea91906135e2565b610f72565b6040516104fc9190613bb3565b60405180910390f35b34801561051157600080fd5b5061051a611024565b6040516105279190613c3c565b60405180910390f35b34801561053c57600080fd5b506105576004803603810190610552919061333e565b611037565b6040516105649190613f99565b60405180910390f35b34801561057957600080fd5b506105826110ef565b005b34801561059057600080fd5b506105ab60048036038101906105a69190613526565b611177565b005b3480156105b957600080fd5b506105d460048036038101906105cf919061333e565b611210565b6040516105e19190613c1a565b60405180910390f35b3480156105f657600080fd5b506105ff61130a565b60405161060c9190613bb3565b60405180910390f35b34801561062157600080fd5b5061063c600480360381019061063791906134e5565b611334565b005b34801561064a57600080fd5b50610665600480360381019061066091906135e2565b611458565b005b34801561067357600080fd5b5061067c6114de565b6040516106899190613c57565b60405180910390f35b34801561069e57600080fd5b506106a7611570565b6040516106b49190613f99565b60405180910390f35b3480156106c957600080fd5b506106e460048036038101906106df919061346d565b611576565b005b3480156106f257600080fd5b5061070d600480360381019061070891906133f2565b6116f7565b005b610729600480360381019061072491906135e2565b611759565b005b34801561073757600080fd5b506107406118d9565b60405161074d9190613c57565b60405180910390f35b34801561076257600080fd5b5061077d600480360381019061077891906135e2565b611967565b60405161078a9190613c57565b60405180910390f35b34801561079f57600080fd5b506107a8611a11565b6040516107b59190613c57565b60405180910390f35b3480156107ca57600080fd5b506107e560048036038101906107e0919061333e565b611a9f565b005b3480156107f357600080fd5b5061080e60048036038101906108099190613367565b611b5f565b60405161081b9190613c3c565b60405180910390f35b34801561083057600080fd5b5061084b6004803603810190610846919061333e565b611bf3565b005b610867600480360381019061086291906135e2565b611ceb565b005b60007f780e9d63000000000000000000000000000000000000000000000000000000007bffffffffffffffffffffffffffffffffffffffffffffffffffffffff1916827bffffffffffffffffffffffffffffffffffffffffffffffffffffffff191614806108dc57506108db82611f36565b5b9050919050565b6060600080546108f2906142ce565b80601f016020809104026020016040519081016040528092919081815260200182805461091e906142ce565b801561096b5780601f106109405761010080835404028352916020019161096b565b820191906000526020600020905b81548152906001019060200180831161094e57829003601f168201915b5050505050905090565b600061098082612018565b6109bf576040517f08c379a00000000000000000000000000000000000000000000000000000000081526004016109b690613e59565b60405180910390fd5b6004600083815260200190815260200160002060009054906101000a900473ffffffffffffffffffffffffffffffffffffffff169050919050565b6000610a0582610f72565b90508073ffffffffffffffffffffffffffffffffffffffff168373ffffffffffffffffffffffffffffffffffffffff161415610a76576040517f08c379a0000000000000000000000000000000000000000000000000000000008152600401610a6d90613f19565b60405180910390fd5b8073ffffffffffffffffffffffffffffffffffffffff16610a95612084565b73ffffffffffffffffffffffffffffffffffffffff161480610ac45750610ac381610abe612084565b611b5f565b5b610b03576040517f08c379a0000000000000000000000000000000000000000000000000000000008152600401610afa90613dd9565b60405180910390fd5b610b0d838361208c565b505050565b600e60009054906101000a900473ffffffffffffffffffffffffffffffffffffffff1681565b6000600880549050905090565b610b56610b50612084565b82612145565b610b95576040517f08c379a0000000000000000000000000000000000000000000000000000000008152600401610b8c90613f39565b60405180910390fd5b610ba0838383612223565b505050565b6000610bb083611037565b8210610bf1576040517f08c379a0000000000000000000000000000000000000000000000000000000008152600401610be890613cb9565b60405180910390fd5b600660008473ffffffffffffffffffffffffffffffffffffffff1673ffffffffffffffffffffffffffffffffffffffff168152602001908152602001600020600083815260200190815260200160002054905092915050565b600f6020528060005260406000206000915090505481565b610c6a612084565b73ffffffffffffffffffffffffffffffffffffffff16610c8861130a565b73ffffffffffffffffffffffffffffffffffffffff1614610cde576040517f08c379a0000000000000000000000000000000000000000000000000000000008152600401610cd590613e99565b60405180910390fd5b6000600e60009054906101000a900473ffffffffffffffffffffffffffffffffffffffff1673ffffffffffffffffffffffffffffffffffffffff1647604051610d2690613b9e565b60006040518083038185875af1925050503d8060008114610d63576040519150601f19603f3d011682016040523d82523d6000602084013e610d68565b606091505b5050905080610d7657600080fd5b50565b610d81612084565b73ffffffffffffffffffffffffffffffffffffffff16610d9f61130a565b73ffffffffffffffffffffffffffffffffffffffff1614610df5576040517f08c379a0000000000000000000000000000000000000000000000000000000008152600401610dec90613e99565b60405180910390fd5b80600a60156101000a81548160ff02191690831515021790555050565b610e2d838383604051806020016040528060008152506116f7565b505050565b6000610e3c610b38565b8210610e7d576040517f08c379a0000000000000000000000000000000000000000000000000000000008152600401610e7490613f59565b60405180910390fd5b60088281548110610eb7577f4e487b7100000000000000000000000000000000000000000000000000000000600052603260045260246000fd5b90600052602060002001549050919050565b600a60159054906101000a900460ff1681565b610ee4612084565b73ffffffffffffffffffffffffffffffffffffffff16610f0261130a565b73ffffffffffffffffffffffffffffffffffffffff1614610f58576040517f08c379a0000000000000000000000000000000000000000000000000000000008152600401610f4f90613e99565b60405180910390fd5b80600c9080519060200190610f6e9291906130cc565b5050565b6000806002600084815260200190815260200160002060009054906101000a900473ffffffffffffffffffffffffffffffffffffffff169050600073ffffffffffffffffffffffffffffffffffffffff168173ffffffffffffffffffffffffffffffffffffffff16141561101b576040517f08c379a000000000000000000000000000000000000000000000000000000000815260040161101290613e19565b60405180910390fd5b80915050919050565b600a60149054906101000a900460ff1681565b60008073ffffffffffffffffffffffffffffffffffffffff168273ffffffffffffffffffffffffffffffffffffffff1614156110a8576040517f08c379a000000000000000000000000000000000000000000000000000000000815260040161109f90613df9565b60405180910390fd5b600360008373ffffffffffffffffffffffffffffffffffffffff1673ffffffffffffffffffffffffffffffffffffffff168152602001908152602001600020549050919050565b6110f7612084565b73ffffffffffffffffffffffffffffffffffffffff1661111561130a565b73ffffffffffffffffffffffffffffffffffffffff161461116b576040517f08c379a000000000000000000000000000000000000000000000000000000000815260040161116290613e99565b60405180910390fd5b611175600061247f565b565b61117f612084565b73ffffffffffffffffffffffffffffffffffffffff1661119d61130a565b73ffffffffffffffffffffffffffffffffffffffff16146111f3576040517f08c379a00000000000000000000000000000000000000000000000000000000081526004016111ea90613e99565b60405180910390fd5b80600a60146101000a81548160ff02191690831515021790555050565b6060600061121d83611037565b905060008167ffffffffffffffff811115611261577f4e487b7100000000000000000000000000000000000000000000000000000000600052604160045260246000fd5b60405190808252806020026020018201604052801561128f5781602001602082028036833780820191505090505b50905060005b828110156112ff576112a78582610ba5565b8282815181106112e0577f4e487b7100000000000000000000000000000000000000000000000000000000600052603260045260246000fd5b60200260200101818152505080806112f790614331565b915050611295565b508092505050919050565b6000600a60009054906101000a900473ffffffffffffffffffffffffffffffffffffffff16905090565b61133c612084565b73ffffffffffffffffffffffffffffffffffffffff1661135a61130a565b73ffffffffffffffffffffffffffffffffffffffff16146113b0576040517f08c379a00000000000000000000000000000000000000000000000000000000081526004016113a790613e99565b60405180910390fd5b60005b8151811015611454576002600f60008484815181106113fb577f4e487b7100000000000000000000000000000000000000000000000000000000600052603260045260246000fd5b602002602001015173ffffffffffffffffffffffffffffffffffffffff1673ffffffffffffffffffffffffffffffffffffffff16815260200190815260200160002081905550808061144c90614331565b9150506113b3565b5050565b611460612084565b73ffffffffffffffffffffffffffffffffffffffff1661147e61130a565b73ffffffffffffffffffffffffffffffffffffffff16146114d4576040517f08c379a00000000000000000000000000000000000000000000000000000000081526004016114cb90613e99565b60405180910390fd5b80600b8190555050565b6060600180546114ed906142ce565b80601f0160208091040260200160405190810160405280929190818152602001828054611519906142ce565b80156115665780601f1061153b57610100808354040283529160200191611566565b820191906000526020600020905b81548152906001019060200180831161154957829003601f168201915b5050505050905090565b600b5481565b61157e612084565b73ffffffffffffffffffffffffffffffffffffffff168273ffffffffffffffffffffffffffffffffffffffff1614156115ec576040517f08c379a00000000000000000000000000000000000000000000000000000000081526004016115e390613d79565b60405180910390fd5b80600560006115f9612084565b73ffffffffffffffffffffffffffffffffffffffff1673ffffffffffffffffffffffffffffffffffffffff16815260200190815260200160002060008473ffffffffffffffffffffffffffffffffffffffff1673ffffffffffffffffffffffffffffffffffffffff16815260200190815260200160002060006101000a81548160ff0219169083151502179055508173ffffffffffffffffffffffffffffffffffffffff166116a6612084565b73ffffffffffffffffffffffffffffffffffffffff167f17307eab39ab6107e8899845ad3d59bd9653f200f220920489ca2b5937696c31836040516116eb9190613c3c565b60405180910390a35050565b611708611702612084565b83612145565b611747576040517f08c379a000000000000000000000000000000000000000000000000000000000815260040161173e90613f39565b60405180910390fd5b61175384848484612545565b50505050565b6000611763610b38565b9050600a60149054906101000a900460ff166117b4576040517f08c379a00000000000000000000000000000000000000000000000000000000081526004016117ab90613ef9565b60405180910390fd5b6000821180156117c45750601582105b611803576040517f08c379a00000000000000000000000000000000000000000000000000000000081526004016117fa90613c99565b60405180910390fd5b600582826118119190614103565b1115611852576040517f08c379a000000000000000000000000000000000000000000000000000000000815260040161184990613d39565b60405180910390fd5b81600b54611860919061418a565b34146118a1576040517f08c379a000000000000000000000000000000000000000000000000000000000815260040161189890613f79565b60405180910390fd5b60005b828110156118d4576118c13382846118bc9190614103565b6125a1565b80806118cc90614331565b9150506118a4565b505050565b600d80546118e6906142ce565b80601f0160208091040260200160405190810160405280929190818152602001828054611912906142ce565b801561195f5780601f106119345761010080835404028352916020019161195f565b820191906000526020600020905b81548152906001019060200180831161194257829003601f168201915b505050505081565b606061197282612018565b6119b1576040517f08c379a00000000000000000000000000000000000000000000000000000000081526004016119a890613ed9565b60405180910390fd5b60006119bb6125bf565b905060008151116119db5760405180602001604052806000815250611a09565b806119e584612651565b600d6040516020016119f993929190613b6d565b6040516020818303038152906040525b915050919050565b600c8054611a1e906142ce565b80601f0160208091040260200160405190810160405280929190818152602001828054611a4a906142ce565b8015611a975780601f10611a6c57610100808354040283529160200191611a97565b820191906000526020600020905b815481529060010190602001808311611a7a57829003601f168201915b505050505081565b611aa7612084565b73ffffffffffffffffffffffffffffffffffffffff16611ac561130a565b73ffffffffffffffffffffffffffffffffffffffff1614611b1b576040517f08c379a0000000000000000000000000000000000000000000000000000000008152600401611b1290613e99565b60405180910390fd5b80600e60006101000a81548173ffffffffffffffffffffffffffffffffffffffff021916908373ffffffffffffffffffffffffffffffffffffffff16021790555050565b6000600560008473ffffffffffffffffffffffffffffffffffffffff1673ffffffffffffffffffffffffffffffffffffffff16815260200190815260200160002060008373ffffffffffffffffffffffffffffffffffffffff1673ffffffffffffffffffffffffffffffffffffffff16815260200190815260200160002060009054906101000a900460ff16905092915050565b611bfb612084565b73ffffffffffffffffffffffffffffffffffffffff16611c1961130a565b73ffffffffffffffffffffffffffffffffffffffff1614611c6f576040517f08c379a0000000000000000000000000000000000000000000000000000000008152600401611c6690613e99565b60405180910390fd5b600073ffffffffffffffffffffffffffffffffffffffff168173ffffffffffffffffffffffffffffffffffffffff161415611cdf576040517f08c379a0000000000000000000000000000000000000000000000000000000008152600401611cd690613cf9565b60405180910390fd5b611ce88161247f565b50565b6000611cf5610b38565b90506000600f60003373ffffffffffffffffffffffffffffffffffffffff1673ffffffffffffffffffffffffffffffffffffffff168152602001908152602001600020549050600a60159054906101000a900460ff16611d8a576040517f08c379a0000000000000000000000000000000000000000000000000000000008152600401611d8190613e79565b60405180910390fd5b60008111611dcd576040517f08c379a0000000000000000000000000000000000000000000000000000000008152600401611dc490613db9565b60405180910390fd5b80831115611e10576040517f08c379a0000000000000000000000000000000000000000000000000000000008152600401611e0790613c79565b60405180910390fd5b60058383611e1e9190614103565b1115611e5f576040517f08c379a0000000000000000000000000000000000000000000000000000000008152600401611e5690613d39565b60405180910390fd5b82600b54611e6d919061418a565b3414611eae576040517f08c379a0000000000000000000000000000000000000000000000000000000008152600401611ea590613f79565b60405180910390fd5b8281611eba91906141e4565b600f60003373ffffffffffffffffffffffffffffffffffffffff1673ffffffffffffffffffffffffffffffffffffffff1681526020019081526020016000208190555060005b83811015611f3057611f1d338285611f189190614103565b6125a1565b8080611f2890614331565b915050611f00565b50505050565b60007f80ac58cd000000000000000000000000000000000000000000000000000000007bffffffffffffffffffffffffffffffffffffffffffffffffffffffff1916827bffffffffffffffffffffffffffffffffffffffffffffffffffffffff1916148061200157507f5b5e139f000000000000000000000000000000000000000000000000000000007bffffffffffffffffffffffffffffffffffffffffffffffffffffffff1916827bffffffffffffffffffffffffffffffffffffffffffffffffffffffff1916145b806120115750612010826127fe565b5b9050919050565b60008073ffffffffffffffffffffffffffffffffffffffff166002600084815260200190815260200160002060009054906101000a900473ffffffffffffffffffffffffffffffffffffffff1673ffffffffffffffffffffffffffffffffffffffff1614159050919050565b600033905090565b816004600083815260200190815260200160002060006101000a81548173ffffffffffffffffffffffffffffffffffffffff021916908373ffffffffffffffffffffffffffffffffffffffff160217905550808273ffffffffffffffffffffffffffffffffffffffff166120ff83610f72565b73ffffffffffffffffffffffffffffffffffffffff167f8c5be1e5ebec7d5bd14f71427d1e84f3dd0314c0f7b2291e5b200ac8c7c3b92560405160405180910390a45050565b600061215082612018565b61218f576040517f08c379a000000000000000000000000000000000000000000000000000000000815260040161218690613d99565b60405180910390fd5b600061219a83610f72565b90508073ffffffffffffffffffffffffffffffffffffffff168473ffffffffffffffffffffffffffffffffffffffff16148061220957508373ffffffffffffffffffffffffffffffffffffffff166121f184610975565b73ffffffffffffffffffffffffffffffffffffffff16145b8061221a57506122198185611b5f565b5b91505092915050565b8273ffffffffffffffffffffffffffffffffffffffff1661224382610f72565b73ffffffffffffffffffffffffffffffffffffffff1614612299576040517f08c379a000000000000000000000000000000000000000000000000000000000815260040161229090613eb9565b60405180910390fd5b600073ffffffffffffffffffffffffffffffffffffffff168273ffffffffffffffffffffffffffffffffffffffff161415612309576040517f08c379a000000000000000000000000000000000000000000000000000000000815260040161230090613d59565b60405180910390fd5b612314838383612868565b61231f60008261208c565b6001600360008573ffffffffffffffffffffffffffffffffffffffff1673ffffffffffffffffffffffffffffffffffffffff168152602001908152602001600020600082825461236f91906141e4565b925050819055506001600360008473ffffffffffffffffffffffffffffffffffffffff1673ffffffffffffffffffffffffffffffffffffffff16815260200190815260200160002060008282546123c69190614103565b92505081905550816002600083815260200190815260200160002060006101000a81548173ffffffffffffffffffffffffffffffffffffffff021916908373ffffffffffffffffffffffffffffffffffffffff160217905550808273ffffffffffffffffffffffffffffffffffffffff168473ffffffffffffffffffffffffffffffffffffffff167fddf252ad1be2c89b69c2b068fc378daa952ba7f163c4a11628f55a4df523b3ef60405160405180910390a4505050565b6000600a60009054906101000a900473ffffffffffffffffffffffffffffffffffffffff16905081600a60006101000a81548173ffffffffffffffffffffffffffffffffffffffff021916908373ffffffffffffffffffffffffffffffffffffffff1602179055508173ffffffffffffffffffffffffffffffffffffffff168173ffffffffffffffffffffffffffffffffffffffff167f8be0079c531659141344cd1fd0a4f28419497f9722a3daafe3b4186f6b6457e060405160405180910390a35050565b612550848484612223565b61255c8484848461297c565b61259b576040517f08c379a000000000000000000000000000000000000000000000000000000000815260040161259290613cd9565b60405180910390fd5b50505050565b6125bb828260405180602001604052806000815250612b13565b5050565b6060600c80546125ce906142ce565b80601f01602080910402602001604051908101604052809291908181526020018280546125fa906142ce565b80156126475780601f1061261c57610100808354040283529160200191612647565b820191906000526020600020905b81548152906001019060200180831161262a57829003601f168201915b5050505050905090565b60606000821415612699576040518060400160405280600181526020017f300000000000000000000000000000000000000000000000000000000000000081525090506127f9565b600082905060005b600082146126cb5780806126b490614331565b915050600a826126c49190614159565b91506126a1565b60008167ffffffffffffffff81111561270d577f4e487b7100000000000000000000000000000000000000000000000000000000600052604160045260246000fd5b6040519080825280601f01601f19166020018201604052801561273f5781602001600182028036833780820191505090505b5090505b600085146127f25760018261275891906141e4565b9150600a85612767919061437a565b60306127739190614103565b60f81b8183815181106127af577f4e487b7100000000000000000000000000000000000000000000000000000000600052603260045260246000fd5b60200101907effffffffffffffffffffffffffffffffffffffffffffffffffffffffffffff1916908160001a905350600a856127eb9190614159565b9450612743565b8093505050505b919050565b60007f01ffc9a7000000000000000000000000000000000000000000000000000000007bffffffffffffffffffffffffffffffffffffffffffffffffffffffff1916827bffffffffffffffffffffffffffffffffffffffffffffffffffffffff1916149050919050565b612873838383612b6e565b600073ffffffffffffffffffffffffffffffffffffffff168373ffffffffffffffffffffffffffffffffffffffff1614156128b6576128b181612b73565b6128f5565b8173ffffffffffffffffffffffffffffffffffffffff168373ffffffffffffffffffffffffffffffffffffffff16146128f4576128f38382612bbc565b5b5b600073ffffffffffffffffffffffffffffffffffffffff168273ffffffffffffffffffffffffffffffffffffffff1614156129385761293381612d29565b612977565b8273ffffffffffffffffffffffffffffffffffffffff168273ffffffffffffffffffffffffffffffffffffffff1614612976576129758282612e6c565b5b5b505050565b600061299d8473ffffffffffffffffffffffffffffffffffffffff16612eeb565b15612b06578373ffffffffffffffffffffffffffffffffffffffff1663150b7a026129c6612084565b8786866040518563ffffffff1660e01b81526004016129e89493929190613bce565b602060405180830381600087803b158015612a0257600080fd5b505af1925050508015612a3357506040513d601f19601f82011682018060405250810190612a309190613578565b60015b612ab6573d8060008114612a63576040519150601f19603f3d011682016040523d82523d6000602084013e612a68565b606091505b50600081511415612aae576040517f08c379a0000000000000000000000000000000000000000000000000000000008152600401612aa590613cd9565b60405180910390fd5b805181602001fd5b63150b7a0260e01b7bffffffffffffffffffffffffffffffffffffffffffffffffffffffff1916817bffffffffffffffffffffffffffffffffffffffffffffffffffffffff191614915050612b0b565b600190505b949350505050565b612b1d8383612efe565b612b2a600084848461297c565b612b69576040517f08c379a0000000000000000000000000000000000000000000000000000000008152600401612b6090613cd9565b60405180910390fd5b505050565b505050565b6008805490506009600083815260200190815260200160002081905550600881908060018154018082558091505060019003906000526020600020016000909190919091505550565b60006001612bc984611037565b612bd391906141e4565b9050600060076000848152602001908152602001600020549050818114612cb8576000600660008673ffffffffffffffffffffffffffffffffffffffff1673ffffffffffffffffffffffffffffffffffffffff168152602001908152602001600020600084815260200190815260200160002054905080600660008773ffffffffffffffffffffffffffffffffffffffff1673ffffffffffffffffffffffffffffffffffffffff168152602001908152602001600020600084815260200190815260200160002081905550816007600083815260200190815260200160002081905550505b6007600084815260200190815260200160002060009055600660008573ffffffffffffffffffffffffffffffffffffffff1673ffffffffffffffffffffffffffffffffffffffff16815260200190815260200160002060008381526020019081526020016000206000905550505050565b60006001600880549050612d3d91906141e4565b9050600060096000848152602001908152602001600020549050600060088381548110612d93577f4e487b7100000000000000000000000000000000000000000000000000000000600052603260045260246000fd5b906000526020600020015490508060088381548110612ddb577f4e487b7100000000000000000000000000000000000000000000000000000000600052603260045260246000fd5b906000526020600020018190555081600960008381526020019081526020016000208190555060096000858152602001908152602001600020600090556008805480612e50577f4e487b7100000000000000000000000000000000000000000000000000000000600052603160045260246000fd5b6001900381819060005260206000200160009055905550505050565b6000612e7783611037565b905081600660008573ffffffffffffffffffffffffffffffffffffffff1673ffffffffffffffffffffffffffffffffffffffff168152602001908152602001600020600083815260200190815260200160002081905550806007600084815260200190815260200160002081905550505050565b600080823b905060008111915050919050565b600073ffffffffffffffffffffffffffffffffffffffff168273ffffffffffffffffffffffffffffffffffffffff161415612f6e576040517f08c379a0000000000000000000000000000000000000000000000000000000008152600401612f6590613e39565b60405180910390fd5b612f7781612018565b15612fb7576040517f08c379a0000000000000000000000000000000000000000000000000000000008152600401612fae90613d19565b60405180910390fd5b612fc360008383612868565b6001600360008473ffffffffffffffffffffffffffffffffffffffff1673ffffffffffffffffffffffffffffffffffffffff16815260200190815260200160002060008282546130139190614103565b92505081905550816002600083815260200190815260200160002060006101000a81548173ffffffffffffffffffffffffffffffffffffffff021916908373ffffffffffffffffffffffffffffffffffffffff160217905550808273ffffffffffffffffffffffffffffffffffffffff16600073ffffffffffffffffffffffffffffffffffffffff167fddf252ad1be2c89b69c2b068fc378daa952ba7f163c4a11628f55a4df523b3ef60405160405180910390a45050565b8280546130d8906142ce565b90600052602060002090601f0160209004810192826130fa5760008555613141565b82601f1061311357805160ff1916838001178555613141565b82800160010185558215613141579182015b82811115613140578251825591602001919060010190613125565b5b50905061314e9190613152565b5090565b5b8082111561316b576000816000905550600101613153565b5090565b600061318261317d84613fd9565b613fb4565b905080838252602082019050828560208602820111156131a157600080fd5b60005b858110156131d157816131b78882613257565b8452602084019350602083019250506001810190506131a4565b5050509392505050565b60006131ee6131e984614005565b613fb4565b90508281526020810184848401111561320657600080fd5b61321184828561428c565b509392505050565b600061322c61322784614036565b613fb4565b90508281526020810184848401111561324457600080fd5b61324f84828561428c565b509392505050565b60008135905061326681614adc565b92915050565b600082601f83011261327d57600080fd5b813561328d84826020860161316f565b91505092915050565b6000813590506132a581614af3565b92915050565b6000813590506132ba81614b0a565b92915050565b6000815190506132cf81614b0a565b92915050565b600082601f8301126132e657600080fd5b81356132f68482602086016131db565b91505092915050565b600082601f83011261331057600080fd5b8135613320848260208601613219565b91505092915050565b60008135905061333881614b21565b92915050565b60006020828403121561335057600080fd5b600061335e84828501613257565b91505092915050565b6000806040838503121561337a57600080fd5b600061338885828601613257565b925050602061339985828601613257565b9150509250929050565b6000806000606084860312156133b857600080fd5b60006133c686828701613257565b93505060206133d786828701613257565b92505060406133e886828701613329565b9150509250925092565b6000806000806080858703121561340857600080fd5b600061341687828801613257565b945050602061342787828801613257565b935050604061343887828801613329565b925050606085013567ffffffffffffffff81111561345557600080fd5b613461878288016132d5565b91505092959194509250565b6000806040838503121561348057600080fd5b600061348e85828601613257565b925050602061349f85828601613296565b9150509250929050565b600080604083850312156134bc57600080fd5b60006134ca85828601613257565b92505060206134db85828601613329565b9150509250929050565b6000602082840312156134f757600080fd5b600082013567ffffffffffffffff81111561351157600080fd5b61351d8482850161326c565b91505092915050565b60006020828403121561353857600080fd5b600061354684828501613296565b91505092915050565b60006020828403121561356157600080fd5b600061356f848285016132ab565b91505092915050565b60006020828403121561358a57600080fd5b6000613598848285016132c0565b91505092915050565b6000602082840312156135b357600080fd5b600082013567ffffffffffffffff8111156135cd57600080fd5b6135d9848285016132ff565b91505092915050565b6000602082840312156135f457600080fd5b600061360284828501613329565b91505092915050565b60006136178383613b4f565b60208301905092915050565b61362c81614218565b82525050565b600061363d8261408c565b61364781856140ba565b935061365283614067565b8060005b8381101561368357815161366a888261360b565b9750613675836140ad565b925050600181019050613656565b5085935050505092915050565b6136998161422a565b82525050565b60006136aa82614097565b6136b481856140cb565b93506136c481856020860161429b565b6136cd81614467565b840191505092915050565b60006136e3826140a2565b6136ed81856140e7565b93506136fd81856020860161429b565b61370681614467565b840191505092915050565b600061371c826140a2565b61372681856140f8565b935061373681856020860161429b565b80840191505092915050565b6000815461374f816142ce565b61375981866140f8565b945060018216600081146137745760018114613785576137b8565b60ff198316865281860193506137b8565b61378e85614077565b60005b838110156137b057815481890152600182019150602081019050613791565b838801955050505b50505092915050565b60006137ce601d836140e7565b91506137d982614478565b602082019050919050565b60006137f1602d836140e7565b91506137fc826144a1565b604082019050919050565b6000613814602b836140e7565b915061381f826144f0565b604082019050919050565b60006138376032836140e7565b91506138428261453f565b604082019050919050565b600061385a6026836140e7565b91506138658261458e565b604082019050919050565b600061387d601c836140e7565b9150613888826145dd565b602082019050919050565b60006138a0601f836140e7565b91506138ab82614606565b602082019050919050565b60006138c36024836140e7565b91506138ce8261462f565b604082019050919050565b60006138e66019836140e7565b91506138f18261467e565b602082019050919050565b6000613909602c836140e7565b9150613914826146a7565b604082019050919050565b600061392c6023836140e7565b9150613937826146f6565b604082019050919050565b600061394f6038836140e7565b915061395a82614745565b604082019050919050565b6000613972602a836140e7565b915061397d82614794565b604082019050919050565b60006139956029836140e7565b91506139a0826147e3565b604082019050919050565b60006139b86020836140e7565b91506139c382614832565b602082019050919050565b60006139db602c836140e7565b91506139e68261485b565b604082019050919050565b60006139fe6014836140e7565b9150613a09826148aa565b602082019050919050565b6000613a216020836140e7565b9150613a2c826148d3565b602082019050919050565b6000613a446029836140e7565b9150613a4f826148fc565b604082019050919050565b6000613a67602f836140e7565b9150613a728261494b565b604082019050919050565b6000613a8a6011836140e7565b9150613a958261499a565b602082019050919050565b6000613aad6021836140e7565b9150613ab8826149c3565b604082019050919050565b6000613ad06000836140dc565b9150613adb82614a12565b600082019050919050565b6000613af36031836140e7565b9150613afe82614a15565b604082019050919050565b6000613b16602c836140e7565b9150613b2182614a64565b604082019050919050565b6000613b396018836140e7565b9150613b4482614ab3565b602082019050919050565b613b5881614282565b82525050565b613b6781614282565b82525050565b6000613b798286613711565b9150613b858285613711565b9150613b918284613742565b9150819050949350505050565b6000613ba982613ac3565b9150819050919050565b6000602082019050613bc86000830184613623565b92915050565b6000608082019050613be36000830187613623565b613bf06020830186613623565b613bfd6040830185613b5e565b8181036060830152613c0f818461369f565b905095945050505050565b60006020820190508181036000830152613c348184613632565b905092915050565b6000602082019050613c516000830184613690565b92915050565b60006020820190508181036000830152613c7181846136d8565b905092915050565b60006020820190508181036000830152613c92816137c1565b9050919050565b60006020820190508181036000830152613cb2816137e4565b9050919050565b60006020820190508181036000830152613cd281613807565b9050919050565b60006020820190508181036000830152613cf28161382a565b9050919050565b60006020820190508181036000830152613d128161384d565b9050919050565b60006020820190508181036000830152613d3281613870565b9050919050565b60006020820190508181036000830152613d5281613893565b9050919050565b60006020820190508181036000830152613d72816138b6565b9050919050565b60006020820190508181036000830152613d92816138d9565b9050919050565b60006020820190508181036000830152613db2816138fc565b9050919050565b60006020820190508181036000830152613dd28161391f565b9050919050565b60006020820190508181036000830152613df281613942565b9050919050565b60006020820190508181036000830152613e1281613965565b9050919050565b60006020820190508181036000830152613e3281613988565b9050919050565b60006020820190508181036000830152613e52816139ab565b9050919050565b60006020820190508181036000830152613e72816139ce565b9050919050565b60006020820190508181036000830152613e92816139f1565b9050919050565b60006020820190508181036000830152613eb281613a14565b9050919050565b60006020820190508181036000830152613ed281613a37565b9050919050565b60006020820190508181036000830152613ef281613a5a565b9050919050565b60006020820190508181036000830152613f1281613a7d565b9050919050565b60006020820190508181036000830152613f3281613aa0565b9050919050565b60006020820190508181036000830152613f5281613ae6565b9050919050565b60006020820190508181036000830152613f7281613b09565b9050919050565b60006020820190508181036000830152613f9281613b2c565b9050919050565b6000602082019050613fae6000830184613b5e565b92915050565b6000613fbe613fcf565b9050613fca8282614300565b919050565b6000604051905090565b600067ffffffffffffffff821115613ff457613ff3614438565b5b602082029050602081019050919050565b600067ffffffffffffffff8211156140205761401f614438565b5b61402982614467565b9050602081019050919050565b600067ffffffffffffffff82111561405157614050614438565b5b61405a82614467565b9050602081019050919050565b6000819050602082019050919050565b60008190508160005260206000209050919050565b600081519050919050565b600081519050919050565b600081519050919050565b6000602082019050919050565b600082825260208201905092915050565b600082825260208201905092915050565b600081905092915050565b600082825260208201905092915050565b600081905092915050565b600061410e82614282565b915061411983614282565b9250827fffffffffffffffffffffffffffffffffffffffffffffffffffffffffffffffff0382111561414e5761414d6143ab565b5b828201905092915050565b600061416482614282565b915061416f83614282565b92508261417f5761417e6143da565b5b828204905092915050565b600061419582614282565b91506141a083614282565b9250817fffffffffffffffffffffffffffffffffffffffffffffffffffffffffffffffff04831182151516156141d9576141d86143ab565b5b828202905092915050565b60006141ef82614282565b91506141fa83614282565b92508282101561420d5761420c6143ab565b5b828203905092915050565b600061422382614262565b9050919050565b60008115159050919050565b60007fffffffff0000000000000000000000000000000000000000000000000000000082169050919050565b600073ffffffffffffffffffffffffffffffffffffffff82169050919050565b6000819050919050565b82818337600083830152505050565b60005b838110156142b957808201518184015260208101905061429e565b838111156142c8576000848401525b50505050565b600060028204905060018216806142e657607f821691505b602082108114156142fa576142f9614409565b5b50919050565b61430982614467565b810181811067ffffffffffffffff8211171561432857614327614438565b5b80604052505050565b600061433c82614282565b91507fffffffffffffffffffffffffffffffffffffffffffffffffffffffffffffffff82141561436f5761436e6143ab565b5b600182019050919050565b600061438582614282565b915061439083614282565b9250826143a05761439f6143da565b5b828206905092915050565b7f4e487b7100000000000000000000000000000000000000000000000000000000600052601160045260246000fd5b7f4e487b7100000000000000000000000000000000000000000000000000000000600052601260045260246000fd5b7f4e487b7100000000000000000000000000000000000000000000000000000000600052602260045260246000fd5b7f4e487b7100000000000000000000000000000000000000000000000000000000600052604160045260246000fd5b6000601f19601f8301169050919050565b7f43616e2774206d696e74206d6f7265207468616e207265736572766564000000600082015250565b7f43616e206f6e6c79206d696e74206265747765656e203120616e64203230207460008201527f6f6b656e73206174206f6e636500000000000000000000000000000000000000602082015250565b7f455243373231456e756d657261626c653a206f776e657220696e646578206f7560008201527f74206f6620626f756e6473000000000000000000000000000000000000000000602082015250565b7f4552433732313a207472616e7366657220746f206e6f6e20455243373231526560008201527f63656976657220696d706c656d656e7465720000000000000000000000000000602082015250565b7f4f776e61626c653a206e6577206f776e657220697320746865207a65726f206160008201527f6464726573730000000000000000000000000000000000000000000000000000602082015250565b7f4552433732313a20746f6b656e20616c7265616479206d696e74656400000000600082015250565b7f43616e2774206d696e74206d6f7265207468616e206d617820737570706c7900600082015250565b7f4552433732313a207472616e7366657220746f20746865207a65726f2061646460008201527f7265737300000000000000000000000000000000000000000000000000000000602082015250565b7f4552433732313a20617070726f766520746f2063616c6c657200000000000000600082015250565b7f4552433732313a206f70657261746f7220717565727920666f72206e6f6e657860008201527f697374656e7420746f6b656e0000000000000000000000000000000000000000602082015250565b7f4e6f20746f6b656e7320726573657276656420666f7220796f7572206164647260008201527f6573730000000000000000000000000000000000000000000000000000000000602082015250565b7f4552433732313a20617070726f76652063616c6c6572206973206e6f74206f7760008201527f6e6572206e6f7220617070726f76656420666f7220616c6c0000000000000000602082015250565b7f4552433732313a2062616c616e636520717565727920666f7220746865207a6560008201527f726f206164647265737300000000000000000000000000000000000000000000602082015250565b7f4552433732313a206f776e657220717565727920666f72206e6f6e657869737460008201527f656e7420746f6b656e0000000000000000000000000000000000000000000000602082015250565b7f4552433732313a206d696e7420746f20746865207a65726f2061646472657373600082015250565b7f4552433732313a20617070726f76656420717565727920666f72206e6f6e657860008201527f697374656e7420746f6b656e0000000000000000000000000000000000000000602082015250565b7f50726573616c652069736e277420616374697665000000000000000000000000600082015250565b7f4f776e61626c653a2063616c6c6572206973206e6f7420746865206f776e6572600082015250565b7f4552433732313a207472616e73666572206f6620746f6b656e2074686174206960008201527f73206e6f74206f776e0000000000000000000000000000000000000000000000602082015250565b7f4552433732314d657461646174613a2055524920717565727920666f72206e6f60008201527f6e6578697374656e7420746f6b656e0000000000000000000000000000000000602082015250565b7f53616c652069736e277420616374697665000000000000000000000000000000600082015250565b7f4552433732313a20617070726f76616c20746f2063757272656e74206f776e6560008201527f7200000000000000000000000000000000000000000000000000000000000000602082015250565b50565b7f4552433732313a207472616e736665722063616c6c6572206973206e6f74206f60008201527f776e6572206e6f7220617070726f766564000000000000000000000000000000602082015250565b7f455243373231456e756d657261626c653a20676c6f62616c20696e646578206f60008201527f7574206f6620626f756e64730000000000000000000000000000000000000000602082015250565b7f57726f6e6720616d6f756e74206f66204554482073656e740000000000000000600082015250565b614ae581614218565b8114614af057600080fd5b50565b614afc8161422a565b8114614b0757600080fd5b50565b614b1381614236565b8114614b1e57600080fd5b50565b614b2a81614282565b8114614b3557600080fd5b5056fea2646970667358221220a8ad634eba0d02d4771877570f0adead43cd19550300ec15e29874ac8e34913464736f6c63430008040033",
  "immutableReferences": {},
  "source": "// SPDX-License-Identifier: MIT\npragma solidity ^0.8.4;\n\nimport '@openzeppelin/contracts/token/ERC721/extensions/ERC721Enumerable.sol';\nimport '@openzeppelin/contracts/access/Ownable.sol';\n\ncontract PotionShop is ERC721Enumerable, Ownable {  \n    using Address for address;\n    using Strings for uint256;\n    \n    // Starting and stopping sale and presale\n    bool public saleActive = false;\n    bool public presaleActive = false;\n\n\n    // Price of each token\n    uint256 public price = 0.04 ether; // 1.yet to decide\n\n    // Maximum limit of tokens that can ever exist\n    uint256 constant MAX_SUPPLY = 5; //2. needs correct number\n\n    // The base link that leads to the image / video of the token\n    string public baseTokenURI;\n\n    string public baseExtension = \".json\";\n\n    // Team addresses for withdrawals\n    address public a1;\n\n    // List of addresses that have a number of reserved tokens for presale\n    mapping (address => uint256) public presaleReserved;\n\n    constructor (string memory newBaseURI) ERC721 (\"THE POTION SHOP\", \"TPS\") {\n        setBaseURI(newBaseURI);\n    }\n\n    // Override so the openzeppelin tokenURI() method will use this method to create the full tokenURI instead\n    function _baseURI() internal view virtual override returns (string memory) {\n        return baseTokenURI;\n    }\n\n    // See which address owns which tokens\n    function tokensOfOwner(address addr) public view returns(uint256[] memory) {\n        uint256 tokenCount = balanceOf(addr);\n        uint256[] memory tokensId = new uint256[](tokenCount);\n        for(uint256 i; i < tokenCount; i++){\n            tokensId[i] = tokenOfOwnerByIndex(addr, i);\n        }\n        return tokensId;\n    }\n\n    // Exclusive presale minting\n    function mintPresale(uint256 _amount) public payable {\n        uint256 supply = totalSupply();\n        uint256 reservedAmt = presaleReserved[msg.sender];\n        require( presaleActive,                  \"Presale isn't active\" );\n        require( reservedAmt > 0,                \"No tokens reserved for your address\" );\n        require( _amount <= reservedAmt,         \"Can't mint more than reserved\" );\n        require( supply + _amount <= MAX_SUPPLY, \"Can't mint more than max supply\" );\n        require( msg.value == price * _amount,   \"Wrong amount of ETH sent\" );\n        presaleReserved[msg.sender] = reservedAmt - _amount;\n        for(uint256 i; i < _amount; i++){\n            _safeMint( msg.sender, supply + i );\n        }\n    }\n\n    // Standard mint function\n    function mintToken(uint256 _amount) public payable {\n        uint256 supply = totalSupply();\n        require( saleActive,                     \"Sale isn't active\" );\n        require( _amount > 0 && _amount < 21,    \"Can only mint between 1 and 20 tokens at once\" );\n        require( supply + _amount <= MAX_SUPPLY, \"Can't mint more than max supply\" );\n        require( msg.value == price * _amount,   \"Wrong amount of ETH sent\" );\n        for(uint256 i; i < _amount; i++){\n            _safeMint( msg.sender, supply + i );\n        }\n    }\n\n    \n    // Edit reserved presale spots\n    function editPresaleReserved(address[] memory _a) public onlyOwner {\n        for(uint256 i; i < _a.length; i++){\n            presaleReserved[_a[i]] = 2; /// Only 2 reserved per account\n        }\n    }\n    \n    // override to ensure correct tokenURI\n    function tokenURI(uint256 tokenId) public view virtual override returns (string memory) {\n        require(\n        _exists(tokenId),\n        \"ERC721Metadata: URI query for nonexistent token\"\n        );\n\n        string memory currentBaseURI = _baseURI();\n        return bytes(currentBaseURI).length > 0\n            ? string(abi.encodePacked(currentBaseURI, tokenId.toString(), baseExtension))\n            : \"\";\n    }\n\n    // Start and stop presale\n    function setPresaleActive(bool val) public onlyOwner {\n        presaleActive = val;\n    }\n\n    // Start and stop sale\n    function setSaleActive(bool val) public onlyOwner {\n        saleActive = val;\n    }\n\n    // Set new baseURI\n    function setBaseURI(string memory baseURI) public onlyOwner {\n        baseTokenURI = baseURI;\n    }\n\n    // Set a different price in case ETH changes drastically\n    function setPrice(uint256 newPrice) public onlyOwner {\n        price = newPrice;\n    }\n\n    // Set team addresses\n    function setAddress(address _a) public onlyOwner {\n        a1 = _a;\n    }\n\n    // Withdraw funds from contract for the team\n    function withdraw() public payable onlyOwner {\n        (bool success, ) = payable(a1).call{value: address(this).balance}(\"\");\n        require(success);\n    }\n}\n",
  "sourcePath": "/home/vostok/Desktop/WORK/7pto/POTION_SHOP/contracts/PotionShop.sol",
  "compiler": {
    "name": "solc",
    "version": "0.8.4+commit.c7e474f2.Emscripten.clang"
  },
  "schemaVersion": "3.4.1",
  "updatedAt": "2021-09-28T10:05:18.027Z",
  "devdoc": {
    "kind": "dev",
    "methods": {
      "approve(address,uint256)": {
        "details": "See {IERC721-approve}."
      },
      "balanceOf(address)": {
        "details": "See {IERC721-balanceOf}."
      },
      "getApproved(uint256)": {
        "details": "See {IERC721-getApproved}."
      },
      "isApprovedForAll(address,address)": {
        "details": "See {IERC721-isApprovedForAll}."
      },
      "name()": {
        "details": "See {IERC721Metadata-name}."
      },
      "owner()": {
        "details": "Returns the address of the current owner."
      },
      "ownerOf(uint256)": {
        "details": "See {IERC721-ownerOf}."
      },
      "renounceOwnership()": {
        "details": "Leaves the contract without owner. It will not be possible to call `onlyOwner` functions anymore. Can only be called by the current owner. NOTE: Renouncing ownership will leave the contract without an owner, thereby removing any functionality that is only available to the owner."
      },
      "safeTransferFrom(address,address,uint256)": {
        "details": "See {IERC721-safeTransferFrom}."
      },
      "safeTransferFrom(address,address,uint256,bytes)": {
        "details": "See {IERC721-safeTransferFrom}."
      },
      "setApprovalForAll(address,bool)": {
        "details": "See {IERC721-setApprovalForAll}."
      },
      "supportsInterface(bytes4)": {
        "details": "See {IERC165-supportsInterface}."
      },
      "symbol()": {
        "details": "See {IERC721Metadata-symbol}."
      },
      "tokenByIndex(uint256)": {
        "details": "See {IERC721Enumerable-tokenByIndex}."
      },
      "tokenOfOwnerByIndex(address,uint256)": {
        "details": "See {IERC721Enumerable-tokenOfOwnerByIndex}."
      },
      "tokenURI(uint256)": {
        "details": "See {IERC721Metadata-tokenURI}."
      },
      "totalSupply()": {
        "details": "See {IERC721Enumerable-totalSupply}."
      },
      "transferFrom(address,address,uint256)": {
        "details": "See {IERC721-transferFrom}."
      },
      "transferOwnership(address)": {
        "details": "Transfers ownership of the contract to a new account (`newOwner`). Can only be called by the current owner."
      }
    },
    "version": 1
  },
  "userdoc": {
    "kind": "user",
    "methods": {},
    "version": 1
  }
}