{
  "contractName": "potion_shop",
  "abi": [
    {
      "inputs": [
        {
          "internalType": "string",
          "name": "newBaseURI",
          "type": "string"
        }
      ],
      "stateMutability": "nonpayable",
      "type": "constructor"
    },
    {
      "anonymous": false,
      "inputs": [
        {
          "indexed": true,
          "internalType": "address",
          "name": "owner",
          "type": "address"
        },
        {
          "indexed": true,
          "internalType": "address",
          "name": "approved",
          "type": "address"
        },
        {
          "indexed": true,
          "internalType": "uint256",
          "name": "tokenId",
          "type": "uint256"
        }
      ],
      "name": "Approval",
      "type": "event"
    },
    {
      "anonymous": false,
      "inputs": [
        {
          "indexed": true,
          "internalType": "address",
          "name": "owner",
          "type": "address"
        },
        {
          "indexed": true,
          "internalType": "address",
          "name": "operator",
          "type": "address"
        },
        {
          "indexed": false,
          "internalType": "bool",
          "name": "approved",
          "type": "bool"
        }
      ],
      "name": "ApprovalForAll",
      "type": "event"
    },
    {
      "anonymous": false,
      "inputs": [
        {
          "indexed": true,
          "internalType": "address",
          "name": "previousOwner",
          "type": "address"
        },
        {
          "indexed": true,
          "internalType": "address",
          "name": "newOwner",
          "type": "address"
        }
      ],
      "name": "OwnershipTransferred",
      "type": "event"
    },
    {
      "anonymous": false,
      "inputs": [
        {
          "indexed": true,
          "internalType": "address",
          "name": "from",
          "type": "address"
        },
        {
          "indexed": true,
          "internalType": "address",
          "name": "to",
          "type": "address"
        },
        {
          "indexed": true,
          "internalType": "uint256",
          "name": "tokenId",
          "type": "uint256"
        }
      ],
      "name": "Transfer",
      "type": "event"
    },
    {
      "inputs": [],
      "name": "a1",
      "outputs": [
        {
          "internalType": "address",
          "name": "",
          "type": "address"
        }
      ],
      "stateMutability": "view",
      "type": "function"
    },
    {
      "inputs": [
        {
          "internalType": "address",
          "name": "to",
          "type": "address"
        },
        {
          "internalType": "uint256",
          "name": "tokenId",
          "type": "uint256"
        }
      ],
      "name": "approve",
      "outputs": [],
      "stateMutability": "nonpayable",
      "type": "function"
    },
    {
      "inputs": [
        {
          "internalType": "address",
          "name": "owner",
          "type": "address"
        }
      ],
      "name": "balanceOf",
      "outputs": [
        {
          "internalType": "uint256",
          "name": "",
          "type": "uint256"
        }
      ],
      "stateMutability": "view",
      "type": "function"
    },
    {
      "inputs": [],
      "name": "baseExtension",
      "outputs": [
        {
          "internalType": "string",
          "name": "",
          "type": "string"
        }
      ],
      "stateMutability": "view",
      "type": "function"
    },
    {
      "inputs": [],
      "name": "baseTokenURI",
      "outputs": [
        {
          "internalType": "string",
          "name": "",
          "type": "string"
        }
      ],
      "stateMutability": "view",
      "type": "function"
    },
    {
      "inputs": [
        {
          "internalType": "uint256",
          "name": "tokenId",
          "type": "uint256"
        }
      ],
      "name": "getApproved",
      "outputs": [
        {
          "internalType": "address",
          "name": "",
          "type": "address"
        }
      ],
      "stateMutability": "view",
      "type": "function"
    },
    {
      "inputs": [
        {
          "internalType": "address",
          "name": "owner",
          "type": "address"
        },
        {
          "internalType": "address",
          "name": "operator",
          "type": "address"
        }
      ],
      "name": "isApprovedForAll",
      "outputs": [
        {
          "internalType": "bool",
          "name": "",
          "type": "bool"
        }
      ],
      "stateMutability": "view",
      "type": "function"
    },
    {
      "inputs": [],
      "name": "name",
      "outputs": [
        {
          "internalType": "string",
          "name": "",
          "type": "string"
        }
      ],
      "stateMutability": "view",
      "type": "function"
    },
    {
      "inputs": [],
      "name": "owner",
      "outputs": [
        {
          "internalType": "address",
          "name": "",
          "type": "address"
        }
      ],
      "stateMutability": "view",
      "type": "function"
    },
    {
      "inputs": [
        {
          "internalType": "uint256",
          "name": "tokenId",
          "type": "uint256"
        }
      ],
      "name": "ownerOf",
      "outputs": [
        {
          "internalType": "address",
          "name": "",
          "type": "address"
        }
      ],
      "stateMutability": "view",
      "type": "function"
    },
    {
      "inputs": [],
      "name": "presaleActive",
      "outputs": [
        {
          "internalType": "bool",
          "name": "",
          "type": "bool"
        }
      ],
      "stateMutability": "view",
      "type": "function"
    },
    {
      "inputs": [
        {
          "internalType": "address",
          "name": "",
          "type": "address"
        }
      ],
      "name": "presaleReserved",
      "outputs": [
        {
          "internalType": "uint256",
          "name": "",
          "type": "uint256"
        }
      ],
      "stateMutability": "view",
      "type": "function"
    },
    {
      "inputs": [],
      "name": "price",
      "outputs": [
        {
          "internalType": "uint256",
          "name": "",
          "type": "uint256"
        }
      ],
      "stateMutability": "view",
      "type": "function"
    },
    {
      "inputs": [],
      "name": "renounceOwnership",
      "outputs": [],
      "stateMutability": "nonpayable",
      "type": "function"
    },
    {
      "inputs": [
        {
          "internalType": "address",
          "name": "from",
          "type": "address"
        },
        {
          "internalType": "address",
          "name": "to",
          "type": "address"
        },
        {
          "internalType": "uint256",
          "name": "tokenId",
          "type": "uint256"
        }
      ],
      "name": "safeTransferFrom",
      "outputs": [],
      "stateMutability": "nonpayable",
      "type": "function"
    },
    {
      "inputs": [
        {
          "internalType": "address",
          "name": "from",
          "type": "address"
        },
        {
          "internalType": "address",
          "name": "to",
          "type": "address"
        },
        {
          "internalType": "uint256",
          "name": "tokenId",
          "type": "uint256"
        },
        {
          "internalType": "bytes",
          "name": "_data",
          "type": "bytes"
        }
      ],
      "name": "safeTransferFrom",
      "outputs": [],
      "stateMutability": "nonpayable",
      "type": "function"
    },
    {
      "inputs": [],
      "name": "saleActive",
      "outputs": [
        {
          "internalType": "bool",
          "name": "",
          "type": "bool"
        }
      ],
      "stateMutability": "view",
      "type": "function"
    },
    {
      "inputs": [
        {
          "internalType": "address",
          "name": "operator",
          "type": "address"
        },
        {
          "internalType": "bool",
          "name": "approved",
          "type": "bool"
        }
      ],
      "name": "setApprovalForAll",
      "outputs": [],
      "stateMutability": "nonpayable",
      "type": "function"
    },
    {
      "inputs": [
        {
          "internalType": "bytes4",
          "name": "interfaceId",
          "type": "bytes4"
        }
      ],
      "name": "supportsInterface",
      "outputs": [
        {
          "internalType": "bool",
          "name": "",
          "type": "bool"
        }
      ],
      "stateMutability": "view",
      "type": "function"
    },
    {
      "inputs": [],
      "name": "symbol",
      "outputs": [
        {
          "internalType": "string",
          "name": "",
          "type": "string"
        }
      ],
      "stateMutability": "view",
      "type": "function"
    },
    {
      "inputs": [
        {
          "internalType": "uint256",
          "name": "index",
          "type": "uint256"
        }
      ],
      "name": "tokenByIndex",
      "outputs": [
        {
          "internalType": "uint256",
          "name": "",
          "type": "uint256"
        }
      ],
      "stateMutability": "view",
      "type": "function"
    },
    {
      "inputs": [
        {
          "internalType": "address",
          "name": "owner",
          "type": "address"
        },
        {
          "internalType": "uint256",
          "name": "index",
          "type": "uint256"
        }
      ],
      "name": "tokenOfOwnerByIndex",
      "outputs": [
        {
          "internalType": "uint256",
          "name": "",
          "type": "uint256"
        }
      ],
      "stateMutability": "view",
      "type": "function"
    },
    {
      "inputs": [],
      "name": "totalSupply",
      "outputs": [
        {
          "internalType": "uint256",
          "name": "",
          "type": "uint256"
        }
      ],
      "stateMutability": "view",
      "type": "function"
    },
    {
      "inputs": [
        {
          "internalType": "address",
          "name": "from",
          "type": "address"
        },
        {
          "internalType": "address",
          "name": "to",
          "type": "address"
        },
        {
          "internalType": "uint256",
          "name": "tokenId",
          "type": "uint256"
        }
      ],
      "name": "transferFrom",
      "outputs": [],
      "stateMutability": "nonpayable",
      "type": "function"
    },
    {
      "inputs": [
        {
          "internalType": "address",
          "name": "newOwner",
          "type": "address"
        }
      ],
      "name": "transferOwnership",
      "outputs": [],
      "stateMutability": "nonpayable",
      "type": "function"
    },
    {
      "inputs": [
        {
          "internalType": "address",
          "name": "addr",
          "type": "address"
        }
      ],
      "name": "tokensOfOwner",
      "outputs": [
        {
          "internalType": "uint256[]",
          "name": "",
          "type": "uint256[]"
        }
      ],
      "stateMutability": "view",
      "type": "function"
    },
    {
      "inputs": [
        {
          "internalType": "uint256",
          "name": "_amount",
          "type": "uint256"
        }
      ],
      "name": "mintPresale",
      "outputs": [],
      "stateMutability": "payable",
      "type": "function"
    },
    {
      "inputs": [
        {
          "internalType": "uint256",
          "name": "_amount",
          "type": "uint256"
        }
      ],
      "name": "mintToken",
      "outputs": [],
      "stateMutability": "payable",
      "type": "function"
    },
    {
      "inputs": [
        {
          "internalType": "address[]",
          "name": "_a",
          "type": "address[]"
        },
        {
          "internalType": "uint256[]",
          "name": "_amount",
          "type": "uint256[]"
        }
      ],
      "name": "editPresaleReserved",
      "outputs": [],
      "stateMutability": "nonpayable",
      "type": "function"
    },
    {
      "inputs": [
        {
          "internalType": "uint256",
          "name": "tokenId",
          "type": "uint256"
        }
      ],
      "name": "tokenURI",
      "outputs": [
        {
          "internalType": "string",
          "name": "",
          "type": "string"
        }
      ],
      "stateMutability": "view",
      "type": "function"
    },
    {
      "inputs": [
        {
          "internalType": "bool",
          "name": "val",
          "type": "bool"
        }
      ],
      "name": "setPresaleActive",
      "outputs": [],
      "stateMutability": "nonpayable",
      "type": "function"
    },
    {
      "inputs": [
        {
          "internalType": "bool",
          "name": "val",
          "type": "bool"
        }
      ],
      "name": "setSaleActive",
      "outputs": [],
      "stateMutability": "nonpayable",
      "type": "function"
    },
    {
      "inputs": [
        {
          "internalType": "string",
          "name": "baseURI",
          "type": "string"
        }
      ],
      "name": "setBaseURI",
      "outputs": [],
      "stateMutability": "nonpayable",
      "type": "function"
    },
    {
      "inputs": [
        {
          "internalType": "uint256",
          "name": "newPrice",
          "type": "uint256"
        }
      ],
      "name": "setPrice",
      "outputs": [],
      "stateMutability": "nonpayable",
      "type": "function"
    },
    {
      "inputs": [
        {
          "internalType": "address",
          "name": "_a",
          "type": "address"
        }
      ],
      "name": "setAddress",
      "outputs": [],
      "stateMutability": "nonpayable",
      "type": "function"
    },
    {
      "inputs": [],
      "name": "withdraw",
      "outputs": [],
      "stateMutability": "payable",
      "type": "function"
    }
  ],
  "bytecode": "0x60806040526000600a60146101000a81548160ff0219169083151502179055506000600a60156101000a81548160ff021916908315150217905550668e1bc9bf040000600b556040518060400160405280600581526020017f2e6a736f6e000000000000000000000000000000000000000000000000000000815250600d90805190602001906200009292919062000341565b50348015620000a057600080fd5b5060405162005348380380620053488339818101604052810190620000c6919062000463565b6040518060400160405280600f81526020017f54484520504f54494f4e2053484f5000000000000000000000000000000000008152506040518060400160405280600381526020017f545053000000000000000000000000000000000000000000000000000000000081525081600090805190602001906200014a92919062000341565b5080600190805190602001906200016392919062000341565b505050620001866200017a6200019e60201b60201c565b620001a660201b60201c565b62000197816200026c60201b60201c565b506200069b565b600033905090565b6000600a60009054906101000a900473ffffffffffffffffffffffffffffffffffffffff16905081600a60006101000a81548173ffffffffffffffffffffffffffffffffffffffff021916908373ffffffffffffffffffffffffffffffffffffffff1602179055508173ffffffffffffffffffffffffffffffffffffffff168173ffffffffffffffffffffffffffffffffffffffff167f8be0079c531659141344cd1fd0a4f28419497f9722a3daafe3b4186f6b6457e060405160405180910390a35050565b6200027c6200019e60201b60201c565b73ffffffffffffffffffffffffffffffffffffffff16620002a26200031760201b60201c565b73ffffffffffffffffffffffffffffffffffffffff1614620002fb576040517f08c379a0000000000000000000000000000000000000000000000000000000008152600401620002f290620004cf565b60405180910390fd5b80600c90805190602001906200031392919062000341565b5050565b6000600a60009054906101000a900473ffffffffffffffffffffffffffffffffffffffff16905090565b8280546200034f9062000597565b90600052602060002090601f016020900481019282620003735760008555620003bf565b82601f106200038e57805160ff1916838001178555620003bf565b82800160010185558215620003bf579182015b82811115620003be578251825591602001919060010190620003a1565b5b509050620003ce9190620003d2565b5090565b5b80821115620003ed576000816000905550600101620003d3565b5090565b60006200040862000402846200051a565b620004f1565b9050828152602081018484840111156200042157600080fd5b6200042e84828562000561565b509392505050565b600082601f8301126200044857600080fd5b81516200045a848260208601620003f1565b91505092915050565b6000602082840312156200047657600080fd5b600082015167ffffffffffffffff8111156200049157600080fd5b6200049f8482850162000436565b91505092915050565b6000620004b760208362000550565b9150620004c48262000672565b602082019050919050565b60006020820190508181036000830152620004ea81620004a8565b9050919050565b6000620004fd62000510565b90506200050b8282620005cd565b919050565b6000604051905090565b600067ffffffffffffffff82111562000538576200053762000632565b5b620005438262000661565b9050602081019050919050565b600082825260208201905092915050565b60005b838110156200058157808201518184015260208101905062000564565b8381111562000591576000848401525b50505050565b60006002820490506001821680620005b057607f821691505b60208210811415620005c757620005c662000603565b5b50919050565b620005d88262000661565b810181811067ffffffffffffffff82111715620005fa57620005f962000632565b5b80604052505050565b7f4e487b7100000000000000000000000000000000000000000000000000000000600052602260045260246000fd5b7f4e487b7100000000000000000000000000000000000000000000000000000000600052604160045260246000fd5b6000601f19601f8301169050919050565b7f4f776e61626c653a2063616c6c6572206973206e6f7420746865206f776e6572600082015250565b614c9d80620006ab6000396000f3fe60806040526004361061020f5760003560e01c806370a0823111610118578063b88d4fde116100a0578063d547cfb71161006f578063d547cfb714610793578063e30081a0146107be578063e985e9c5146107e7578063f2fde38b14610824578063f759867a1461084d5761020f565b8063b88d4fde146106e6578063c634d0321461070f578063c66828621461072b578063c87b56dd146107565761020f565b80638da5cb5b116100e75780638da5cb5b1461061357806391b7f5ed1461063e57806395d89b4114610667578063a035b1fe14610692578063a22cb465146106bd5761020f565b806370a0823114610559578063715018a614610596578063841718a6146105ad5780638462151c146105d65761020f565b80633ccfd60b1161019b57806353135ca01161016a57806353135ca01461047457806355f804b31461049f5780636352211e146104c857806368428a1b146105055780636b2fd865146105305761020f565b80633ccfd60b146103db5780633f8121a2146103e557806342842e0e1461040e5780634f6ccce7146104375761020f565b8063119552a1116101e2578063119552a1146102e257806318160ddd1461030d57806323b872dd146103385780632f745c591461036157806339c36fa01461039e5761020f565b806301ffc9a71461021457806306fdde0314610251578063081812fc1461027c578063095ea7b3146102b9575b600080fd5b34801561022057600080fd5b5061023b60048036038101906102369190613652565b610869565b6040516102489190613d3f565b60405180910390f35b34801561025d57600080fd5b506102666108e3565b6040516102739190613d5a565b60405180910390f35b34801561028857600080fd5b506102a3600480360381019061029e91906136e5565b610975565b6040516102b09190613cb6565b60405180910390f35b3480156102c557600080fd5b506102e060048036038101906102db9190613581565b6109fa565b005b3480156102ee57600080fd5b506102f7610b12565b6040516103049190613cb6565b60405180910390f35b34801561031957600080fd5b50610322610b38565b60405161032f919061409c565b60405180910390f35b34801561034457600080fd5b5061035f600480360381019061035a919061347b565b610b45565b005b34801561036d57600080fd5b5061038860048036038101906103839190613581565b610ba5565b604051610395919061409c565b60405180910390f35b3480156103aa57600080fd5b506103c560048036038101906103c09190613416565b610c4a565b6040516103d2919061409c565b60405180910390f35b6103e3610c62565b005b3480156103f157600080fd5b5061040c60048036038101906104079190613629565b610d79565b005b34801561041a57600080fd5b506104356004803603810190610430919061347b565b610e12565b005b34801561044357600080fd5b5061045e600480360381019061045991906136e5565b610e32565b60405161046b919061409c565b60405180910390f35b34801561048057600080fd5b50610489610ec9565b6040516104969190613d3f565b60405180910390f35b3480156104ab57600080fd5b506104c660048036038101906104c191906136a4565b610edc565b005b3480156104d457600080fd5b506104ef60048036038101906104ea91906136e5565b610f72565b6040516104fc9190613cb6565b60405180910390f35b34801561051157600080fd5b5061051a611024565b6040516105279190613d3f565b60405180910390f35b34801561053c57600080fd5b50610557600480360381019061055291906135bd565b611037565b005b34801561056557600080fd5b50610580600480360381019061057b9190613416565b61119b565b60405161058d919061409c565b60405180910390f35b3480156105a257600080fd5b506105ab611253565b005b3480156105b957600080fd5b506105d460048036038101906105cf9190613629565b6112db565b005b3480156105e257600080fd5b506105fd60048036038101906105f89190613416565b611374565b60405161060a9190613d1d565b60405180910390f35b34801561061f57600080fd5b5061062861146e565b6040516106359190613cb6565b60405180910390f35b34801561064a57600080fd5b50610665600480360381019061066091906136e5565b611498565b005b34801561067357600080fd5b5061067c61151e565b6040516106899190613d5a565b60405180910390f35b34801561069e57600080fd5b506106a76115b0565b6040516106b4919061409c565b60405180910390f35b3480156106c957600080fd5b506106e460048036038101906106df9190613545565b6115b6565b005b3480156106f257600080fd5b5061070d600480360381019061070891906134ca565b611737565b005b610729600480360381019061072491906136e5565b611799565b005b34801561073757600080fd5b5061074061191a565b60405161074d9190613d5a565b60405180910390f35b34801561076257600080fd5b5061077d600480360381019061077891906136e5565b6119a8565b60405161078a9190613d5a565b60405180910390f35b34801561079f57600080fd5b506107a8611a52565b6040516107b59190613d5a565b60405180910390f35b3480156107ca57600080fd5b506107e560048036038101906107e09190613416565b611ae0565b005b3480156107f357600080fd5b5061080e6004803603810190610809919061343f565b611ba0565b60405161081b9190613d3f565b60405180910390f35b34801561083057600080fd5b5061084b60048036038101906108469190613416565b611c34565b005b610867600480360381019061086291906136e5565b611d2c565b005b60007f780e9d63000000000000000000000000000000000000000000000000000000007bffffffffffffffffffffffffffffffffffffffffffffffffffffffff1916827bffffffffffffffffffffffffffffffffffffffffffffffffffffffff191614806108dc57506108db82611f78565b5b9050919050565b6060600080546108f2906143fd565b80601f016020809104026020016040519081016040528092919081815260200182805461091e906143fd565b801561096b5780601f106109405761010080835404028352916020019161096b565b820191906000526020600020905b81548152906001019060200180831161094e57829003601f168201915b5050505050905090565b60006109808261205a565b6109bf576040517f08c379a00000000000000000000000000000000000000000000000000000000081526004016109b690613f5c565b60405180910390fd5b6004600083815260200190815260200160002060009054906101000a900473ffffffffffffffffffffffffffffffffffffffff169050919050565b6000610a0582610f72565b90508073ffffffffffffffffffffffffffffffffffffffff168373ffffffffffffffffffffffffffffffffffffffff161415610a76576040517f08c379a0000000000000000000000000000000000000000000000000000000008152600401610a6d9061401c565b60405180910390fd5b8073ffffffffffffffffffffffffffffffffffffffff16610a956120c6565b73ffffffffffffffffffffffffffffffffffffffff161480610ac45750610ac381610abe6120c6565b611ba0565b5b610b03576040517f08c379a0000000000000000000000000000000000000000000000000000000008152600401610afa90613edc565b60405180910390fd5b610b0d83836120ce565b505050565b600e60009054906101000a900473ffffffffffffffffffffffffffffffffffffffff1681565b6000600880549050905090565b610b56610b506120c6565b82612187565b610b95576040517f08c379a0000000000000000000000000000000000000000000000000000000008152600401610b8c9061403c565b60405180910390fd5b610ba0838383612265565b505050565b6000610bb08361119b565b8210610bf1576040517f08c379a0000000000000000000000000000000000000000000000000000000008152600401610be890613dbc565b60405180910390fd5b600660008473ffffffffffffffffffffffffffffffffffffffff1673ffffffffffffffffffffffffffffffffffffffff168152602001908152602001600020600083815260200190815260200160002054905092915050565b600f6020528060005260406000206000915090505481565b610c6a6120c6565b73ffffffffffffffffffffffffffffffffffffffff16610c8861146e565b73ffffffffffffffffffffffffffffffffffffffff1614610cde576040517f08c379a0000000000000000000000000000000000000000000000000000000008152600401610cd590613f9c565b60405180910390fd5b6000600e60009054906101000a900473ffffffffffffffffffffffffffffffffffffffff1673ffffffffffffffffffffffffffffffffffffffff1647604051610d2690613ca1565b60006040518083038185875af1925050503d8060008114610d63576040519150601f19603f3d011682016040523d82523d6000602084013e610d68565b606091505b5050905080610d7657600080fd5b50565b610d816120c6565b73ffffffffffffffffffffffffffffffffffffffff16610d9f61146e565b73ffffffffffffffffffffffffffffffffffffffff1614610df5576040517f08c379a0000000000000000000000000000000000000000000000000000000008152600401610dec90613f9c565b60405180910390fd5b80600a60156101000a81548160ff02191690831515021790555050565b610e2d83838360405180602001604052806000815250611737565b505050565b6000610e3c610b38565b8210610e7d576040517f08c379a0000000000000000000000000000000000000000000000000000000008152600401610e749061405c565b60405180910390fd5b60088281548110610eb7577f4e487b7100000000000000000000000000000000000000000000000000000000600052603260045260246000fd5b90600052602060002001549050919050565b600a60159054906101000a900460ff1681565b610ee46120c6565b73ffffffffffffffffffffffffffffffffffffffff16610f0261146e565b73ffffffffffffffffffffffffffffffffffffffff1614610f58576040517f08c379a0000000000000000000000000000000000000000000000000000000008152600401610f4f90613f9c565b60405180910390fd5b80600c9080519060200190610f6e92919061310e565b5050565b6000806002600084815260200190815260200160002060009054906101000a900473ffffffffffffffffffffffffffffffffffffffff169050600073ffffffffffffffffffffffffffffffffffffffff168173ffffffffffffffffffffffffffffffffffffffff16141561101b576040517f08c379a000000000000000000000000000000000000000000000000000000000815260040161101290613f1c565b60405180910390fd5b80915050919050565b600a60149054906101000a900460ff1681565b61103f6120c6565b73ffffffffffffffffffffffffffffffffffffffff1661105d61146e565b73ffffffffffffffffffffffffffffffffffffffff16146110b3576040517f08c379a00000000000000000000000000000000000000000000000000000000081526004016110aa90613f9c565b60405180910390fd5b60005b8251811015611196578181815181106110f8577f4e487b7100000000000000000000000000000000000000000000000000000000600052603260045260246000fd5b6020026020010151600f600085848151811061113d577f4e487b7100000000000000000000000000000000000000000000000000000000600052603260045260246000fd5b602002602001015173ffffffffffffffffffffffffffffffffffffffff1673ffffffffffffffffffffffffffffffffffffffff16815260200190815260200160002081905550808061118e90614460565b9150506110b6565b505050565b60008073ffffffffffffffffffffffffffffffffffffffff168273ffffffffffffffffffffffffffffffffffffffff16141561120c576040517f08c379a000000000000000000000000000000000000000000000000000000000815260040161120390613efc565b60405180910390fd5b600360008373ffffffffffffffffffffffffffffffffffffffff1673ffffffffffffffffffffffffffffffffffffffff168152602001908152602001600020549050919050565b61125b6120c6565b73ffffffffffffffffffffffffffffffffffffffff1661127961146e565b73ffffffffffffffffffffffffffffffffffffffff16146112cf576040517f08c379a00000000000000000000000000000000000000000000000000000000081526004016112c690613f9c565b60405180910390fd5b6112d960006124c1565b565b6112e36120c6565b73ffffffffffffffffffffffffffffffffffffffff1661130161146e565b73ffffffffffffffffffffffffffffffffffffffff1614611357576040517f08c379a000000000000000000000000000000000000000000000000000000000815260040161134e90613f9c565b60405180910390fd5b80600a60146101000a81548160ff02191690831515021790555050565b606060006113818361119b565b905060008167ffffffffffffffff8111156113c5577f4e487b7100000000000000000000000000000000000000000000000000000000600052604160045260246000fd5b6040519080825280602002602001820160405280156113f35781602001602082028036833780820191505090505b50905060005b828110156114635761140b8582610ba5565b828281518110611444577f4e487b7100000000000000000000000000000000000000000000000000000000600052603260045260246000fd5b602002602001018181525050808061145b90614460565b9150506113f9565b508092505050919050565b6000600a60009054906101000a900473ffffffffffffffffffffffffffffffffffffffff16905090565b6114a06120c6565b73ffffffffffffffffffffffffffffffffffffffff166114be61146e565b73ffffffffffffffffffffffffffffffffffffffff1614611514576040517f08c379a000000000000000000000000000000000000000000000000000000000815260040161150b90613f9c565b60405180910390fd5b80600b8190555050565b60606001805461152d906143fd565b80601f0160208091040260200160405190810160405280929190818152602001828054611559906143fd565b80156115a65780601f1061157b576101008083540402835291602001916115a6565b820191906000526020600020905b81548152906001019060200180831161158957829003601f168201915b5050505050905090565b600b5481565b6115be6120c6565b73ffffffffffffffffffffffffffffffffffffffff168273ffffffffffffffffffffffffffffffffffffffff16141561162c576040517f08c379a000000000000000000000000000000000000000000000000000000000815260040161162390613e7c565b60405180910390fd5b80600560006116396120c6565b73ffffffffffffffffffffffffffffffffffffffff1673ffffffffffffffffffffffffffffffffffffffff16815260200190815260200160002060008473ffffffffffffffffffffffffffffffffffffffff1673ffffffffffffffffffffffffffffffffffffffff16815260200190815260200160002060006101000a81548160ff0219169083151502179055508173ffffffffffffffffffffffffffffffffffffffff166116e66120c6565b73ffffffffffffffffffffffffffffffffffffffff167f17307eab39ab6107e8899845ad3d59bd9653f200f220920489ca2b5937696c318360405161172b9190613d3f565b60405180910390a35050565b6117486117426120c6565b83612187565b611787576040517f08c379a000000000000000000000000000000000000000000000000000000000815260040161177e9061403c565b60405180910390fd5b61179384848484612587565b50505050565b60006117a3610b38565b9050600a60149054906101000a900460ff166117f4576040517f08c379a00000000000000000000000000000000000000000000000000000000081526004016117eb90613ffc565b60405180910390fd5b6000821180156118045750601582105b611843576040517f08c379a000000000000000000000000000000000000000000000000000000000815260040161183a90613d9c565b60405180910390fd5b61271082826118529190614232565b1115611893576040517f08c379a000000000000000000000000000000000000000000000000000000000815260040161188a90613e3c565b60405180910390fd5b81600b546118a191906142b9565b34146118e2576040517f08c379a00000000000000000000000000000000000000000000000000000000081526004016118d99061407c565b60405180910390fd5b60005b82811015611915576119023382846118fd9190614232565b6125e3565b808061190d90614460565b9150506118e5565b505050565b600d8054611927906143fd565b80601f0160208091040260200160405190810160405280929190818152602001828054611953906143fd565b80156119a05780601f10611975576101008083540402835291602001916119a0565b820191906000526020600020905b81548152906001019060200180831161198357829003601f168201915b505050505081565b60606119b38261205a565b6119f2576040517f08c379a00000000000000000000000000000000000000000000000000000000081526004016119e990613fdc565b60405180910390fd5b60006119fc612601565b90506000815111611a1c5760405180602001604052806000815250611a4a565b80611a2684612693565b600d604051602001611a3a93929190613c70565b6040516020818303038152906040525b915050919050565b600c8054611a5f906143fd565b80601f0160208091040260200160405190810160405280929190818152602001828054611a8b906143fd565b8015611ad85780601f10611aad57610100808354040283529160200191611ad8565b820191906000526020600020905b815481529060010190602001808311611abb57829003601f168201915b505050505081565b611ae86120c6565b73ffffffffffffffffffffffffffffffffffffffff16611b0661146e565b73ffffffffffffffffffffffffffffffffffffffff1614611b5c576040517f08c379a0000000000000000000000000000000000000000000000000000000008152600401611b5390613f9c565b60405180910390fd5b80600e60006101000a81548173ffffffffffffffffffffffffffffffffffffffff021916908373ffffffffffffffffffffffffffffffffffffffff16021790555050565b6000600560008473ffffffffffffffffffffffffffffffffffffffff1673ffffffffffffffffffffffffffffffffffffffff16815260200190815260200160002060008373ffffffffffffffffffffffffffffffffffffffff1673ffffffffffffffffffffffffffffffffffffffff16815260200190815260200160002060009054906101000a900460ff16905092915050565b611c3c6120c6565b73ffffffffffffffffffffffffffffffffffffffff16611c5a61146e565b73ffffffffffffffffffffffffffffffffffffffff1614611cb0576040517f08c379a0000000000000000000000000000000000000000000000000000000008152600401611ca790613f9c565b60405180910390fd5b600073ffffffffffffffffffffffffffffffffffffffff168173ffffffffffffffffffffffffffffffffffffffff161415611d20576040517f08c379a0000000000000000000000000000000000000000000000000000000008152600401611d1790613dfc565b60405180910390fd5b611d29816124c1565b50565b6000611d36610b38565b90506000600f60003373ffffffffffffffffffffffffffffffffffffffff1673ffffffffffffffffffffffffffffffffffffffff168152602001908152602001600020549050600a60159054906101000a900460ff16611dcb576040517f08c379a0000000000000000000000000000000000000000000000000000000008152600401611dc290613f7c565b60405180910390fd5b60008111611e0e576040517f08c379a0000000000000000000000000000000000000000000000000000000008152600401611e0590613ebc565b60405180910390fd5b80831115611e51576040517f08c379a0000000000000000000000000000000000000000000000000000000008152600401611e4890613d7c565b60405180910390fd5b6127108383611e609190614232565b1115611ea1576040517f08c379a0000000000000000000000000000000000000000000000000000000008152600401611e9890613e3c565b60405180910390fd5b82600b54611eaf91906142b9565b3414611ef0576040517f08c379a0000000000000000000000000000000000000000000000000000000008152600401611ee79061407c565b60405180910390fd5b8281611efc9190614313565b600f60003373ffffffffffffffffffffffffffffffffffffffff1673ffffffffffffffffffffffffffffffffffffffff1681526020019081526020016000208190555060005b83811015611f7257611f5f338285611f5a9190614232565b6125e3565b8080611f6a90614460565b915050611f42565b50505050565b60007f80ac58cd000000000000000000000000000000000000000000000000000000007bffffffffffffffffffffffffffffffffffffffffffffffffffffffff1916827bffffffffffffffffffffffffffffffffffffffffffffffffffffffff1916148061204357507f5b5e139f000000000000000000000000000000000000000000000000000000007bffffffffffffffffffffffffffffffffffffffffffffffffffffffff1916827bffffffffffffffffffffffffffffffffffffffffffffffffffffffff1916145b80612053575061205282612840565b5b9050919050565b60008073ffffffffffffffffffffffffffffffffffffffff166002600084815260200190815260200160002060009054906101000a900473ffffffffffffffffffffffffffffffffffffffff1673ffffffffffffffffffffffffffffffffffffffff1614159050919050565b600033905090565b816004600083815260200190815260200160002060006101000a81548173ffffffffffffffffffffffffffffffffffffffff021916908373ffffffffffffffffffffffffffffffffffffffff160217905550808273ffffffffffffffffffffffffffffffffffffffff1661214183610f72565b73ffffffffffffffffffffffffffffffffffffffff167f8c5be1e5ebec7d5bd14f71427d1e84f3dd0314c0f7b2291e5b200ac8c7c3b92560405160405180910390a45050565b60006121928261205a565b6121d1576040517f08c379a00000000000000000000000000000000000000000000000000000000081526004016121c890613e9c565b60405180910390fd5b60006121dc83610f72565b90508073ffffffffffffffffffffffffffffffffffffffff168473ffffffffffffffffffffffffffffffffffffffff16148061224b57508373ffffffffffffffffffffffffffffffffffffffff1661223384610975565b73ffffffffffffffffffffffffffffffffffffffff16145b8061225c575061225b8185611ba0565b5b91505092915050565b8273ffffffffffffffffffffffffffffffffffffffff1661228582610f72565b73ffffffffffffffffffffffffffffffffffffffff16146122db576040517f08c379a00000000000000000000000000000000000000000000000000000000081526004016122d290613fbc565b60405180910390fd5b600073ffffffffffffffffffffffffffffffffffffffff168273ffffffffffffffffffffffffffffffffffffffff16141561234b576040517f08c379a000000000000000000000000000000000000000000000000000000000815260040161234290613e5c565b60405180910390fd5b6123568383836128aa565b6123616000826120ce565b6001600360008573ffffffffffffffffffffffffffffffffffffffff1673ffffffffffffffffffffffffffffffffffffffff16815260200190815260200160002060008282546123b19190614313565b925050819055506001600360008473ffffffffffffffffffffffffffffffffffffffff1673ffffffffffffffffffffffffffffffffffffffff16815260200190815260200160002060008282546124089190614232565b92505081905550816002600083815260200190815260200160002060006101000a81548173ffffffffffffffffffffffffffffffffffffffff021916908373ffffffffffffffffffffffffffffffffffffffff160217905550808273ffffffffffffffffffffffffffffffffffffffff168473ffffffffffffffffffffffffffffffffffffffff167fddf252ad1be2c89b69c2b068fc378daa952ba7f163c4a11628f55a4df523b3ef60405160405180910390a4505050565b6000600a60009054906101000a900473ffffffffffffffffffffffffffffffffffffffff16905081600a60006101000a81548173ffffffffffffffffffffffffffffffffffffffff021916908373ffffffffffffffffffffffffffffffffffffffff1602179055508173ffffffffffffffffffffffffffffffffffffffff168173ffffffffffffffffffffffffffffffffffffffff167f8be0079c531659141344cd1fd0a4f28419497f9722a3daafe3b4186f6b6457e060405160405180910390a35050565b612592848484612265565b61259e848484846129be565b6125dd576040517f08c379a00000000000000000000000000000000000000000000000000000000081526004016125d490613ddc565b60405180910390fd5b50505050565b6125fd828260405180602001604052806000815250612b55565b5050565b6060600c8054612610906143fd565b80601f016020809104026020016040519081016040528092919081815260200182805461263c906143fd565b80156126895780601f1061265e57610100808354040283529160200191612689565b820191906000526020600020905b81548152906001019060200180831161266c57829003601f168201915b5050505050905090565b606060008214156126db576040518060400160405280600181526020017f3000000000000000000000000000000000000000000000000000000000000000815250905061283b565b600082905060005b6000821461270d5780806126f690614460565b915050600a826127069190614288565b91506126e3565b60008167ffffffffffffffff81111561274f577f4e487b7100000000000000000000000000000000000000000000000000000000600052604160045260246000fd5b6040519080825280601f01601f1916602001820160405280156127815781602001600182028036833780820191505090505b5090505b600085146128345760018261279a9190614313565b9150600a856127a991906144a9565b60306127b59190614232565b60f81b8183815181106127f1577f4e487b7100000000000000000000000000000000000000000000000000000000600052603260045260246000fd5b60200101907effffffffffffffffffffffffffffffffffffffffffffffffffffffffffffff1916908160001a905350600a8561282d9190614288565b9450612785565b8093505050505b919050565b60007f01ffc9a7000000000000000000000000000000000000000000000000000000007bffffffffffffffffffffffffffffffffffffffffffffffffffffffff1916827bffffffffffffffffffffffffffffffffffffffffffffffffffffffff1916149050919050565b6128b5838383612bb0565b600073ffffffffffffffffffffffffffffffffffffffff168373ffffffffffffffffffffffffffffffffffffffff1614156128f8576128f381612bb5565b612937565b8173ffffffffffffffffffffffffffffffffffffffff168373ffffffffffffffffffffffffffffffffffffffff1614612936576129358382612bfe565b5b5b600073ffffffffffffffffffffffffffffffffffffffff168273ffffffffffffffffffffffffffffffffffffffff16141561297a5761297581612d6b565b6129b9565b8273ffffffffffffffffffffffffffffffffffffffff168273ffffffffffffffffffffffffffffffffffffffff16146129b8576129b78282612eae565b5b5b505050565b60006129df8473ffffffffffffffffffffffffffffffffffffffff16612f2d565b15612b48578373ffffffffffffffffffffffffffffffffffffffff1663150b7a02612a086120c6565b8786866040518563ffffffff1660e01b8152600401612a2a9493929190613cd1565b602060405180830381600087803b158015612a4457600080fd5b505af1925050508015612a7557506040513d601f19601f82011682018060405250810190612a72919061367b565b60015b612af8573d8060008114612aa5576040519150601f19603f3d011682016040523d82523d6000602084013e612aaa565b606091505b50600081511415612af0576040517f08c379a0000000000000000000000000000000000000000000000000000000008152600401612ae790613ddc565b60405180910390fd5b805181602001fd5b63150b7a0260e01b7bffffffffffffffffffffffffffffffffffffffffffffffffffffffff1916817bffffffffffffffffffffffffffffffffffffffffffffffffffffffff191614915050612b4d565b600190505b949350505050565b612b5f8383612f40565b612b6c60008484846129be565b612bab576040517f08c379a0000000000000000000000000000000000000000000000000000000008152600401612ba290613ddc565b60405180910390fd5b505050565b505050565b6008805490506009600083815260200190815260200160002081905550600881908060018154018082558091505060019003906000526020600020016000909190919091505550565b60006001612c0b8461119b565b612c159190614313565b9050600060076000848152602001908152602001600020549050818114612cfa576000600660008673ffffffffffffffffffffffffffffffffffffffff1673ffffffffffffffffffffffffffffffffffffffff168152602001908152602001600020600084815260200190815260200160002054905080600660008773ffffffffffffffffffffffffffffffffffffffff1673ffffffffffffffffffffffffffffffffffffffff168152602001908152602001600020600084815260200190815260200160002081905550816007600083815260200190815260200160002081905550505b6007600084815260200190815260200160002060009055600660008573ffffffffffffffffffffffffffffffffffffffff1673ffffffffffffffffffffffffffffffffffffffff16815260200190815260200160002060008381526020019081526020016000206000905550505050565b60006001600880549050612d7f9190614313565b9050600060096000848152602001908152602001600020549050600060088381548110612dd5577f4e487b7100000000000000000000000000000000000000000000000000000000600052603260045260246000fd5b906000526020600020015490508060088381548110612e1d577f4e487b7100000000000000000000000000000000000000000000000000000000600052603260045260246000fd5b906000526020600020018190555081600960008381526020019081526020016000208190555060096000858152602001908152602001600020600090556008805480612e92577f4e487b7100000000000000000000000000000000000000000000000000000000600052603160045260246000fd5b6001900381819060005260206000200160009055905550505050565b6000612eb98361119b565b905081600660008573ffffffffffffffffffffffffffffffffffffffff1673ffffffffffffffffffffffffffffffffffffffff168152602001908152602001600020600083815260200190815260200160002081905550806007600084815260200190815260200160002081905550505050565b600080823b905060008111915050919050565b600073ffffffffffffffffffffffffffffffffffffffff168273ffffffffffffffffffffffffffffffffffffffff161415612fb0576040517f08c379a0000000000000000000000000000000000000000000000000000000008152600401612fa790613f3c565b60405180910390fd5b612fb98161205a565b15612ff9576040517f08c379a0000000000000000000000000000000000000000000000000000000008152600401612ff090613e1c565b60405180910390fd5b613005600083836128aa565b6001600360008473ffffffffffffffffffffffffffffffffffffffff1673ffffffffffffffffffffffffffffffffffffffff16815260200190815260200160002060008282546130559190614232565b92505081905550816002600083815260200190815260200160002060006101000a81548173ffffffffffffffffffffffffffffffffffffffff021916908373ffffffffffffffffffffffffffffffffffffffff160217905550808273ffffffffffffffffffffffffffffffffffffffff16600073ffffffffffffffffffffffffffffffffffffffff167fddf252ad1be2c89b69c2b068fc378daa952ba7f163c4a11628f55a4df523b3ef60405160405180910390a45050565b82805461311a906143fd565b90600052602060002090601f01602090048101928261313c5760008555613183565b82601f1061315557805160ff1916838001178555613183565b82800160010185558215613183579182015b82811115613182578251825591602001919060010190613167565b5b5090506131909190613194565b5090565b5b808211156131ad576000816000905550600101613195565b5090565b60006131c46131bf846140dc565b6140b7565b905080838252602082019050828560208602820111156131e357600080fd5b60005b8581101561321357816131f98882613305565b8452602084019350602083019250506001810190506131e6565b5050509392505050565b600061323061322b84614108565b6140b7565b9050808382526020820190508285602086028201111561324f57600080fd5b60005b8581101561327f57816132658882613401565b845260208401935060208301925050600181019050613252565b5050509392505050565b600061329c61329784614134565b6140b7565b9050828152602081018484840111156132b457600080fd5b6132bf8482856143bb565b509392505050565b60006132da6132d584614165565b6140b7565b9050828152602081018484840111156132f257600080fd5b6132fd8482856143bb565b509392505050565b60008135905061331481614c0b565b92915050565b600082601f83011261332b57600080fd5b813561333b8482602086016131b1565b91505092915050565b600082601f83011261335557600080fd5b813561336584826020860161321d565b91505092915050565b60008135905061337d81614c22565b92915050565b60008135905061339281614c39565b92915050565b6000815190506133a781614c39565b92915050565b600082601f8301126133be57600080fd5b81356133ce848260208601613289565b91505092915050565b600082601f8301126133e857600080fd5b81356133f88482602086016132c7565b91505092915050565b60008135905061341081614c50565b92915050565b60006020828403121561342857600080fd5b600061343684828501613305565b91505092915050565b6000806040838503121561345257600080fd5b600061346085828601613305565b925050602061347185828601613305565b9150509250929050565b60008060006060848603121561349057600080fd5b600061349e86828701613305565b93505060206134af86828701613305565b92505060406134c086828701613401565b9150509250925092565b600080600080608085870312156134e057600080fd5b60006134ee87828801613305565b94505060206134ff87828801613305565b935050604061351087828801613401565b925050606085013567ffffffffffffffff81111561352d57600080fd5b613539878288016133ad565b91505092959194509250565b6000806040838503121561355857600080fd5b600061356685828601613305565b92505060206135778582860161336e565b9150509250929050565b6000806040838503121561359457600080fd5b60006135a285828601613305565b92505060206135b385828601613401565b9150509250929050565b600080604083850312156135d057600080fd5b600083013567ffffffffffffffff8111156135ea57600080fd5b6135f68582860161331a565b925050602083013567ffffffffffffffff81111561361357600080fd5b61361f85828601613344565b9150509250929050565b60006020828403121561363b57600080fd5b60006136498482850161336e565b91505092915050565b60006020828403121561366457600080fd5b600061367284828501613383565b91505092915050565b60006020828403121561368d57600080fd5b600061369b84828501613398565b91505092915050565b6000602082840312156136b657600080fd5b600082013567ffffffffffffffff8111156136d057600080fd5b6136dc848285016133d7565b91505092915050565b6000602082840312156136f757600080fd5b600061370584828501613401565b91505092915050565b600061371a8383613c52565b60208301905092915050565b61372f81614347565b82525050565b6000613740826141bb565b61374a81856141e9565b935061375583614196565b8060005b8381101561378657815161376d888261370e565b9750613778836141dc565b925050600181019050613759565b5085935050505092915050565b61379c81614359565b82525050565b60006137ad826141c6565b6137b781856141fa565b93506137c78185602086016143ca565b6137d081614596565b840191505092915050565b60006137e6826141d1565b6137f08185614216565b93506138008185602086016143ca565b61380981614596565b840191505092915050565b600061381f826141d1565b6138298185614227565b93506138398185602086016143ca565b80840191505092915050565b60008154613852816143fd565b61385c8186614227565b945060018216600081146138775760018114613888576138bb565b60ff198316865281860193506138bb565b613891856141a6565b60005b838110156138b357815481890152600182019150602081019050613894565b838801955050505b50505092915050565b60006138d1601d83614216565b91506138dc826145a7565b602082019050919050565b60006138f4602d83614216565b91506138ff826145d0565b604082019050919050565b6000613917602b83614216565b91506139228261461f565b604082019050919050565b600061393a603283614216565b91506139458261466e565b604082019050919050565b600061395d602683614216565b9150613968826146bd565b604082019050919050565b6000613980601c83614216565b915061398b8261470c565b602082019050919050565b60006139a3601f83614216565b91506139ae82614735565b602082019050919050565b60006139c6602483614216565b91506139d18261475e565b604082019050919050565b60006139e9601983614216565b91506139f4826147ad565b602082019050919050565b6000613a0c602c83614216565b9150613a17826147d6565b604082019050919050565b6000613a2f602383614216565b9150613a3a82614825565b604082019050919050565b6000613a52603883614216565b9150613a5d82614874565b604082019050919050565b6000613a75602a83614216565b9150613a80826148c3565b604082019050919050565b6000613a98602983614216565b9150613aa382614912565b604082019050919050565b6000613abb602083614216565b9150613ac682614961565b602082019050919050565b6000613ade602c83614216565b9150613ae98261498a565b604082019050919050565b6000613b01601483614216565b9150613b0c826149d9565b602082019050919050565b6000613b24602083614216565b9150613b2f82614a02565b602082019050919050565b6000613b47602983614216565b9150613b5282614a2b565b604082019050919050565b6000613b6a602f83614216565b9150613b7582614a7a565b604082019050919050565b6000613b8d601183614216565b9150613b9882614ac9565b602082019050919050565b6000613bb0602183614216565b9150613bbb82614af2565b604082019050919050565b6000613bd360008361420b565b9150613bde82614b41565b600082019050919050565b6000613bf6603183614216565b9150613c0182614b44565b604082019050919050565b6000613c19602c83614216565b9150613c2482614b93565b604082019050919050565b6000613c3c601883614216565b9150613c4782614be2565b602082019050919050565b613c5b816143b1565b82525050565b613c6a816143b1565b82525050565b6000613c7c8286613814565b9150613c888285613814565b9150613c948284613845565b9150819050949350505050565b6000613cac82613bc6565b9150819050919050565b6000602082019050613ccb6000830184613726565b92915050565b6000608082019050613ce66000830187613726565b613cf36020830186613726565b613d006040830185613c61565b8181036060830152613d1281846137a2565b905095945050505050565b60006020820190508181036000830152613d378184613735565b905092915050565b6000602082019050613d546000830184613793565b92915050565b60006020820190508181036000830152613d7481846137db565b905092915050565b60006020820190508181036000830152613d95816138c4565b9050919050565b60006020820190508181036000830152613db5816138e7565b9050919050565b60006020820190508181036000830152613dd58161390a565b9050919050565b60006020820190508181036000830152613df58161392d565b9050919050565b60006020820190508181036000830152613e1581613950565b9050919050565b60006020820190508181036000830152613e3581613973565b9050919050565b60006020820190508181036000830152613e5581613996565b9050919050565b60006020820190508181036000830152613e75816139b9565b9050919050565b60006020820190508181036000830152613e95816139dc565b9050919050565b60006020820190508181036000830152613eb5816139ff565b9050919050565b60006020820190508181036000830152613ed581613a22565b9050919050565b60006020820190508181036000830152613ef581613a45565b9050919050565b60006020820190508181036000830152613f1581613a68565b9050919050565b60006020820190508181036000830152613f3581613a8b565b9050919050565b60006020820190508181036000830152613f5581613aae565b9050919050565b60006020820190508181036000830152613f7581613ad1565b9050919050565b60006020820190508181036000830152613f9581613af4565b9050919050565b60006020820190508181036000830152613fb581613b17565b9050919050565b60006020820190508181036000830152613fd581613b3a565b9050919050565b60006020820190508181036000830152613ff581613b5d565b9050919050565b6000602082019050818103600083015261401581613b80565b9050919050565b6000602082019050818103600083015261403581613ba3565b9050919050565b6000602082019050818103600083015261405581613be9565b9050919050565b6000602082019050818103600083015261407581613c0c565b9050919050565b6000602082019050818103600083015261409581613c2f565b9050919050565b60006020820190506140b16000830184613c61565b92915050565b60006140c16140d2565b90506140cd828261442f565b919050565b6000604051905090565b600067ffffffffffffffff8211156140f7576140f6614567565b5b602082029050602081019050919050565b600067ffffffffffffffff82111561412357614122614567565b5b602082029050602081019050919050565b600067ffffffffffffffff82111561414f5761414e614567565b5b61415882614596565b9050602081019050919050565b600067ffffffffffffffff8211156141805761417f614567565b5b61418982614596565b9050602081019050919050565b6000819050602082019050919050565b60008190508160005260206000209050919050565b600081519050919050565b600081519050919050565b600081519050919050565b6000602082019050919050565b600082825260208201905092915050565b600082825260208201905092915050565b600081905092915050565b600082825260208201905092915050565b600081905092915050565b600061423d826143b1565b9150614248836143b1565b9250827fffffffffffffffffffffffffffffffffffffffffffffffffffffffffffffffff0382111561427d5761427c6144da565b5b828201905092915050565b6000614293826143b1565b915061429e836143b1565b9250826142ae576142ad614509565b5b828204905092915050565b60006142c4826143b1565b91506142cf836143b1565b9250817fffffffffffffffffffffffffffffffffffffffffffffffffffffffffffffffff0483118215151615614308576143076144da565b5b828202905092915050565b600061431e826143b1565b9150614329836143b1565b92508282101561433c5761433b6144da565b5b828203905092915050565b600061435282614391565b9050919050565b60008115159050919050565b60007fffffffff0000000000000000000000000000000000000000000000000000000082169050919050565b600073ffffffffffffffffffffffffffffffffffffffff82169050919050565b6000819050919050565b82818337600083830152505050565b60005b838110156143e85780820151818401526020810190506143cd565b838111156143f7576000848401525b50505050565b6000600282049050600182168061441557607f821691505b6020821081141561442957614428614538565b5b50919050565b61443882614596565b810181811067ffffffffffffffff8211171561445757614456614567565b5b80604052505050565b600061446b826143b1565b91507fffffffffffffffffffffffffffffffffffffffffffffffffffffffffffffffff82141561449e5761449d6144da565b5b600182019050919050565b60006144b4826143b1565b91506144bf836143b1565b9250826144cf576144ce614509565b5b828206905092915050565b7f4e487b7100000000000000000000000000000000000000000000000000000000600052601160045260246000fd5b7f4e487b7100000000000000000000000000000000000000000000000000000000600052601260045260246000fd5b7f4e487b7100000000000000000000000000000000000000000000000000000000600052602260045260246000fd5b7f4e487b7100000000000000000000000000000000000000000000000000000000600052604160045260246000fd5b6000601f19601f8301169050919050565b7f43616e2774206d696e74206d6f7265207468616e207265736572766564000000600082015250565b7f43616e206f6e6c79206d696e74206265747765656e203120616e64203230207460008201527f6f6b656e73206174206f6e636500000000000000000000000000000000000000602082015250565b7f455243373231456e756d657261626c653a206f776e657220696e646578206f7560008201527f74206f6620626f756e6473000000000000000000000000000000000000000000602082015250565b7f4552433732313a207472616e7366657220746f206e6f6e20455243373231526560008201527f63656976657220696d706c656d656e7465720000000000000000000000000000602082015250565b7f4f776e61626c653a206e6577206f776e657220697320746865207a65726f206160008201527f6464726573730000000000000000000000000000000000000000000000000000602082015250565b7f4552433732313a20746f6b656e20616c7265616479206d696e74656400000000600082015250565b7f43616e2774206d696e74206d6f7265207468616e206d617820737570706c7900600082015250565b7f4552433732313a207472616e7366657220746f20746865207a65726f2061646460008201527f7265737300000000000000000000000000000000000000000000000000000000602082015250565b7f4552433732313a20617070726f766520746f2063616c6c657200000000000000600082015250565b7f4552433732313a206f70657261746f7220717565727920666f72206e6f6e657860008201527f697374656e7420746f6b656e0000000000000000000000000000000000000000602082015250565b7f4e6f20746f6b656e7320726573657276656420666f7220796f7572206164647260008201527f6573730000000000000000000000000000000000000000000000000000000000602082015250565b7f4552433732313a20617070726f76652063616c6c6572206973206e6f74206f7760008201527f6e6572206e6f7220617070726f76656420666f7220616c6c0000000000000000602082015250565b7f4552433732313a2062616c616e636520717565727920666f7220746865207a6560008201527f726f206164647265737300000000000000000000000000000000000000000000602082015250565b7f4552433732313a206f776e657220717565727920666f72206e6f6e657869737460008201527f656e7420746f6b656e0000000000000000000000000000000000000000000000602082015250565b7f4552433732313a206d696e7420746f20746865207a65726f2061646472657373600082015250565b7f4552433732313a20617070726f76656420717565727920666f72206e6f6e657860008201527f697374656e7420746f6b656e0000000000000000000000000000000000000000602082015250565b7f50726573616c652069736e277420616374697665000000000000000000000000600082015250565b7f4f776e61626c653a2063616c6c6572206973206e6f7420746865206f776e6572600082015250565b7f4552433732313a207472616e73666572206f6620746f6b656e2074686174206960008201527f73206e6f74206f776e0000000000000000000000000000000000000000000000602082015250565b7f4552433732314d657461646174613a2055524920717565727920666f72206e6f60008201527f6e6578697374656e7420746f6b656e0000000000000000000000000000000000602082015250565b7f53616c652069736e277420616374697665000000000000000000000000000000600082015250565b7f4552433732313a20617070726f76616c20746f2063757272656e74206f776e6560008201527f7200000000000000000000000000000000000000000000000000000000000000602082015250565b50565b7f4552433732313a207472616e736665722063616c6c6572206973206e6f74206f60008201527f776e6572206e6f7220617070726f766564000000000000000000000000000000602082015250565b7f455243373231456e756d657261626c653a20676c6f62616c20696e646578206f60008201527f7574206f6620626f756e64730000000000000000000000000000000000000000602082015250565b7f57726f6e6720616d6f756e74206f66204554482073656e740000000000000000600082015250565b614c1481614347565b8114614c1f57600080fd5b50565b614c2b81614359565b8114614c3657600080fd5b50565b614c4281614365565b8114614c4d57600080fd5b50565b614c59816143b1565b8114614c6457600080fd5b5056fea2646970667358221220859d5a44bc11bb589176be5efb071f2deaf8c43f3af65a991c028dde5eb338df64736f6c63430008040033",
  "immutableReferences": {},
  "source": "// SPDX-License-Identifier: MIT\r\npragma solidity ^0.8.4;\r\n\r\nimport '@openzeppelin/contracts/token/ERC721/extensions/ERC721Enumerable.sol';\r\nimport '@openzeppelin/contracts/access/Ownable.sol';\r\n\r\ncontract potion_shop is ERC721Enumerable, Ownable {  \r\n    using Address for address;\r\n    using Strings for uint256;\r\n    \r\n    // Starting and stopping sale and presale\r\n    bool public saleActive = false;\r\n    bool public presaleActive = false;\r\n\r\n\r\n    // Price of each token\r\n    uint256 public price = 0.04 ether; // 1.yet to decide\r\n\r\n    // Maximum limit of tokens that can ever exist\r\n    uint256 constant MAX_SUPPLY = 10000; //2. needs correct number\r\n\r\n    // The base link that leads to the image / video of the token\r\n    string public baseTokenURI;\r\n\r\n    string public baseExtension = \".json\";\r\n\r\n    // Team addresses for withdrawals\r\n    address public a1;\r\n\r\n    // List of addresses that have a number of reserved tokens for presale\r\n    mapping (address => uint256) public presaleReserved;\r\n\r\n    constructor (string memory newBaseURI) ERC721 (\"THE POTION SHOP\", \"TPS\") {\r\n        setBaseURI(newBaseURI);\r\n    }\r\n\r\n    // Override so the openzeppelin tokenURI() method will use this method to create the full tokenURI instead\r\n    function _baseURI() internal view virtual override returns (string memory) {\r\n        return baseTokenURI;\r\n    }\r\n\r\n    // See which address owns which tokens\r\n    function tokensOfOwner(address addr) public view returns(uint256[] memory) {\r\n        uint256 tokenCount = balanceOf(addr);\r\n        uint256[] memory tokensId = new uint256[](tokenCount);\r\n        for(uint256 i; i < tokenCount; i++){\r\n            tokensId[i] = tokenOfOwnerByIndex(addr, i);\r\n        }\r\n        return tokensId;\r\n    }\r\n\r\n    // Exclusive presale minting\r\n    function mintPresale(uint256 _amount) public payable {\r\n        uint256 supply = totalSupply();\r\n        uint256 reservedAmt = presaleReserved[msg.sender];\r\n        require( presaleActive,                  \"Presale isn't active\" );\r\n        require( reservedAmt > 0,                \"No tokens reserved for your address\" );\r\n        require( _amount <= reservedAmt,         \"Can't mint more than reserved\" );\r\n        require( supply + _amount <= MAX_SUPPLY, \"Can't mint more than max supply\" );\r\n        require( msg.value == price * _amount,   \"Wrong amount of ETH sent\" );\r\n        presaleReserved[msg.sender] = reservedAmt - _amount;\r\n        for(uint256 i; i < _amount; i++){\r\n            _safeMint( msg.sender, supply + i );\r\n        }\r\n    }\r\n\r\n    // Standard mint function\r\n    function mintToken(uint256 _amount) public payable {\r\n        uint256 supply = totalSupply();\r\n        require( saleActive,                     \"Sale isn't active\" );\r\n        require( _amount > 0 && _amount < 21,    \"Can only mint between 1 and 20 tokens at once\" );\r\n        require( supply + _amount <= MAX_SUPPLY, \"Can't mint more than max supply\" );\r\n        require( msg.value == price * _amount,   \"Wrong amount of ETH sent\" );\r\n        for(uint256 i; i < _amount; i++){\r\n            _safeMint( msg.sender, supply + i );\r\n        }\r\n    }\r\n\r\n    \r\n    // Edit reserved presale spots\r\n    function editPresaleReserved(address[] memory _a, uint256[] memory _amount) public onlyOwner {\r\n        for(uint256 i; i < _a.length; i++){\r\n            presaleReserved[_a[i]] = _amount[i];\r\n        }\r\n    }\r\n    \r\n    // override to ensure correct tokenURI\r\n    function tokenURI(uint256 tokenId)\r\n    public\r\n    view\r\n    virtual\r\n    override\r\n    returns (string memory)\r\n  {\r\n    require(\r\n      _exists(tokenId),\r\n      \"ERC721Metadata: URI query for nonexistent token\"\r\n    );\r\n\r\n    string memory currentBaseURI = _baseURI();\r\n    return bytes(currentBaseURI).length > 0\r\n        ? string(abi.encodePacked(currentBaseURI, tokenId.toString(), baseExtension))\r\n        : \"\";\r\n  }\r\n\r\n    // Start and stop presale\r\n    function setPresaleActive(bool val) public onlyOwner {\r\n        presaleActive = val;\r\n    }\r\n\r\n    // Start and stop sale\r\n    function setSaleActive(bool val) public onlyOwner {\r\n        saleActive = val;\r\n    }\r\n\r\n    // Set new baseURI\r\n    function setBaseURI(string memory baseURI) public onlyOwner {\r\n        baseTokenURI = baseURI;\r\n    }\r\n\r\n    // Set a different price in case ETH changes drastically\r\n    function setPrice(uint256 newPrice) public onlyOwner {\r\n        price = newPrice;\r\n    }\r\n\r\n    // Set team addresses\r\n    function setAddress(address _a) public onlyOwner {\r\n        a1 = _a;\r\n\r\n    }\r\n\r\n    // Withdraw funds from contract for the team\r\n    function withdraw() public payable onlyOwner {\r\n        (bool success, ) = payable(a1).call{value: address(this).balance}(\"\");\r\n        require(success);\r\n\r\n    }\r\n}",
  "sourcePath": "D:/Projects/blockchain projects/important projects/POTION_SHOP/contracts/potion_shop.sol",
  "compiler": {
    "name": "solc",
    "version": "0.8.4+commit.c7e474f2.Emscripten.clang"
  },
  "schemaVersion": "3.4.1",
  "updatedAt": "2021-09-27T16:35:56.233Z",
  "devdoc": {
    "kind": "dev",
    "methods": {
      "approve(address,uint256)": {
        "details": "See {IERC721-approve}."
      },
      "balanceOf(address)": {
        "details": "See {IERC721-balanceOf}."
      },
      "getApproved(uint256)": {
        "details": "See {IERC721-getApproved}."
      },
      "isApprovedForAll(address,address)": {
        "details": "See {IERC721-isApprovedForAll}."
      },
      "name()": {
        "details": "See {IERC721Metadata-name}."
      },
      "owner()": {
        "details": "Returns the address of the current owner."
      },
      "ownerOf(uint256)": {
        "details": "See {IERC721-ownerOf}."
      },
      "renounceOwnership()": {
        "details": "Leaves the contract without owner. It will not be possible to call `onlyOwner` functions anymore. Can only be called by the current owner. NOTE: Renouncing ownership will leave the contract without an owner, thereby removing any functionality that is only available to the owner."
      },
      "safeTransferFrom(address,address,uint256)": {
        "details": "See {IERC721-safeTransferFrom}."
      },
      "safeTransferFrom(address,address,uint256,bytes)": {
        "details": "See {IERC721-safeTransferFrom}."
      },
      "setApprovalForAll(address,bool)": {
        "details": "See {IERC721-setApprovalForAll}."
      },
      "supportsInterface(bytes4)": {
        "details": "See {IERC165-supportsInterface}."
      },
      "symbol()": {
        "details": "See {IERC721Metadata-symbol}."
      },
      "tokenByIndex(uint256)": {
        "details": "See {IERC721Enumerable-tokenByIndex}."
      },
      "tokenOfOwnerByIndex(address,uint256)": {
        "details": "See {IERC721Enumerable-tokenOfOwnerByIndex}."
      },
      "tokenURI(uint256)": {
        "details": "See {IERC721Metadata-tokenURI}."
      },
      "totalSupply()": {
        "details": "See {IERC721Enumerable-totalSupply}."
      },
      "transferFrom(address,address,uint256)": {
        "details": "See {IERC721-transferFrom}."
      },
      "transferOwnership(address)": {
        "details": "Transfers ownership of the contract to a new account (`newOwner`). Can only be called by the current owner."
      }
    },
    "version": 1
  },
  "userdoc": {
    "kind": "user",
    "methods": {},
    "version": 1
  }
}